{"contracts/PlonkVerifier.sol":{"PlonkVerifier":{"abi":[{"inputs":[{"internalType":"bytes","name":"proof","type":"bytes"},{"internalType":"uint256[]","name":"public_inputs","type":"uint256[]"}],"name":"Verify","outputs":[{"internalType":"bool","name":"success","type":"bool"}],"stateMutability":"view","type":"function"}],"evm":{"bytecode":{"linkReferences":{},"object":"608060405234801561001057600080fd5b50612b7d806100206000396000f3fe608060405234801561001057600080fd5b506004361061002b5760003560e01c80637e4f7a8a14610030575b600080fd5b61004a60048036038101906100459190612a90565b610060565b6040516100579190612b2c565b60405180910390f35b6000604051610220810161007384610447565b61007d858561045b565b610086866104b5565b61008f876104d2565b600061009c86868a6106aa565b90506100a7816109f2565b90506100b38189610a5a565b90506100bf8189610af1565b60608301517f30644e72e131a029b85045b68181585d2833e84879b9709143e1f593f000000160017f30644e72e131a029b85045b68181585d2833e84879b9709143e1f593f00000010361011885630100000085612950565b08806101a086015261012b84888a610b5f565b61013685898d610ec6565b7f30644e72e131a029b85045b68181585d2833e84879b9709143e1f593f000000182820891508161018088015261016b611282565b6101748c612480565b61017d8c612408565b6101868c612002565b61018f8c611ada565b6101988c6117e9565b6101a18c6113d7565b6101e087015197506129bc565b6040517f08c379a000000000000000000000000000000000000000000000000000000000815260206004820152601d60248201527f77726f6e67206e756d626572206f66207075626c696320696e707574730000006044820152606481fd5b6040517f08c379a000000000000000000000000000000000000000000000000000000000815260206004820152601260248201527f6572726f72206563206f7065726174696f6e00000000000000000000000000006044820152606481fd5b6040517f08c379a000000000000000000000000000000000000000000000000000000000815260206004820152601860248201527f696e707574732061726520626967676572207468616e207200000000000000006044820152606481fd5b6040517f08c379a000000000000000000000000000000000000000000000000000000000815260206004820152601060248201527f77726f6e672070726f6f662073697a65000000000000000000000000000000006044820152606481fd5b6040517f08c379a000000000000000000000000000000000000000000000000000000000815260206004820152601660248201527f6f70656e696e677320626967676572207468616e2072000000000000000000006044820152606481fd5b6040517f08c379a000000000000000000000000000000000000000000000000000000000815260206004820152600c60248201527f6572726f722076657269667900000000000000000000000000000000000000006044820152606481fd5b6040517f08c379a000000000000000000000000000000000000000000000000000000000815260206004820152601460248201527f6572726f722072616e646f6d2067656e206b7a670000000000000000000000006044820152606481fd5b60408114610458576104576101ae565b5b50565b600160005b828110156104a1577f30644e72e131a029b85045b68181585d2833e84879b9709143e1f593f000000184351082169150602084019350600181019050610460565b50806104b0576104af61026c565b5b505050565b6060600102610340018082146104ce576104cd6102cb565b5b5050565b60016102a082017f30644e72e131a029b85045b68181585d2833e84879b9709143e1f593f000000181351082169150610280830190507f30644e72e131a029b85045b68181585d2833e84879b9709143e1f593f000000181351082169150610180830190507f30644e72e131a029b85045b68181585d2833e84879b9709143e1f593f0000001813510821691506101a0830190507f30644e72e131a029b85045b68181585d2833e84879b9709143e1f593f0000001813510821691506101c0830190507f30644e72e131a029b85045b68181585d2833e84879b9709143e1f593f0000001813510821691506101e0830190507f30644e72e131a029b85045b68181585d2833e84879b9709143e1f593f000000181351082169150610200830190507f30644e72e131a029b85045b68181585d2833e84879b9709143e1f593f000000181351082169150610260830190507f30644e72e131a029b85045b68181585d2833e84879b9709143e1f593f0000001813510821691506103408301905060005b6001811015610696577f30644e72e131a029b85045b68181585d2833e84879b9709143e1f593f000000182351083169250602082019150600181019050610654565b50816106a5576106a461032a565b5b505050565b600060405161022081016467616d6d6181527f131775ddcda187b52cc0b6f9c4a91bbeeb2a7fff859925accb034a207fabdc1260208201527f1268873594cdb041e410ced0cd5f51b49018f5b5b6ba6af6b6d8aaac7c9747e160408201527f08c51e226263b3d4befcd86c5a2e2a64eabf06c2fbd24300634815621fcac2c860608201527f263aa1c4744731be256888ff42041734626688626db7af479cf3bf3e804cec9960808201527f25c0c05f4b72b925d77f400e4cce59e0145c99c34bc3136aeeedc87b049dd34860a08201527f1b8ac7f02a5384133c46e44c552c6aee0feea68602e4d358c1c7eb8e9b31bb5d60c08201527f2001a8e61c4029b6e68a1029c5e43c6265ef43e31fb036598ec4acbc823447bb60e08201527f0bece7c9ec39b2a943717de87235810e71d3caad917290158b8dc88f6b2d04046101008201527f262844f03c48bb4649dd41e0e79fba5439c7f4977be33d0552f833b4ec076d7e6101208201527f2a3e7cbc822d6c632a5a6e57c460764e8a2927f7fcb11a6f83d79cb8f23d5cc06101408201527f10a542641b3711307f371c3aedafc127045d5c71bdd208905bd3aab5ee737db36101608201527f09c0cb1104e1ad7234151a7620d16104832ef78c6057a15da7b4ae43daf0d2176101808201527f24fa29d61c341a39dbbfeca49aebec47aa19904e0f17e0c6368310eca1593eea6101a08201527f14304c61499c73ecaa370dee1ee0960d1d7fc0cec3dbd69815b978d94e8fbd8d6101c08201527f02293d4355cfe017f557ec6f1b454d2a9b4bd96fc94278c0ed04be793d20f3816101e08201527f303a6711de550cea639bc054bf85f573af043030d7a3bb5da0ca4a7e008418466102008201527f2792035b60834ba2677cafe8fa4b80591ea35c985746d338367f98549d0d488b6102208201527f1bc5376cc9d1d402411cfe8bb700a2b7ea407535365cc6a813b17c403fd94c9861024082015261026081016020860280888337808201915060c0808784378083019250816102c50160406001028101905060208582601b880160025afa806109b8576109b7610389565b5b855197507f30644e72e131a029b85045b68181585d2833e84879b9709143e1f593f000000188066040880152505050505050509392505050565b600060405161022060405101636265746181528360208201526020816024601c840160025afa80610a2657610a25610389565b5b815193507f30644e72e131a029b85045b68181585d2833e84879b9709143e1f593f000000184066020840152505050919050565b600060405161022060405101606564616c70686182526020820186815260208101905061036086016001604002808284378083019250808401935060406102208901843760208585601b880160025afa80610ab857610ab7610389565b5b855197507f30644e72e131a029b85045b68181585d2833e84879b9709143e1f593f0000001880660008801525050505050505092915050565b60405161022060405101637a657461815283602082015260c0808401604083013760208160e4601c840160025afa80610b2d57610b2c610389565b5b81517f30644e72e131a029b85045b68181585d2833e84879b9709143e1f593f000000181066060850152505050505050565b600060405160608101516101a082015186610b7c81888486610bfa565b6000805b88811015610bed577f30644e72e131a029b85045b68181585d2833e84879b9709143e1f593f0000001883584510991507f30644e72e131a029b85045b68181585d2833e84879b9709143e1f593f00000018288089650602083019250602088019750600181019050610b80565b5050505050509392505050565b7f30644e72e131a029b85045b68181585d2833e84879b9709143e1f593f00000017f30644e427ce32d4886b01bfe313ba1dba6db8b2045d128178a7164500e0a6c11830960018560005b86811015610ceb577f30644e72e131a029b85045b68181585d2833e84879b9709143e1f593f0000001837f30644e72e131a029b85045b68181585d2833e84879b9709143e1f593f000000103860882527f30644e72e131a029b85045b68181585d2833e84879b9709143e1f593f00000017f0c9fabc7845d50d2852e2a0371c6441f145e0db82e8326961c25f1e3e32b045b84099250602082019150600181019050610c44565b50610cf7818789610db4565b8690506001915060005b86811015610daa577f30644e72e131a029b85045b68181585d2833e84879b9709143e1f593f0000001837f30644e72e131a029b85045b68181585d2833e84879b9709143e1f593f0000001868551090982526020820191507f30644e72e131a029b85045b68181585d2833e84879b9709143e1f593f00000017f0c9fabc7845d50d2852e2a0371c6441f145e0db82e8326961c25f1e3e32b045b84099250600181019050610d01565b5050505050505050565b600183526000805b83811015610e0a5781850151828401517f30644e72e131a029b85045b68181585d2833e84879b9709143e1f593f0000001818309905060208401935080848801525050600181019050610dbc565b5060208103820191508084019350610e4a6020850160027f30644e72e131a029b85045b68181585d2833e84879b9709143e1f593f0000001038651612950565b60005b84811015610ebe5760208603955083517f30644e72e131a029b85045b68181585d2833e84879b9709143e1f593f0000001875184098086527f30644e72e131a029b85045b68181585d2833e84879b9709143e1f593f000000182850993506020860395505050600181019050610e4d565b505050505050565b600060405160608101516101a08201516103608501600080610eee8a6020850135853561107f565b9150610f018a628707288b018688610f3f565b90507f30644e72e131a029b85045b68181585d2833e84879b9709143e1f593f000000180828409880896506040830192505050505050509392505050565b6000610f6c85857f0c9fabc7845d50d2852e2a0371c6441f145e0db82e8326961c25f1e3e32b045b612950565b7f30644e72e131a029b85045b68181585d2833e84879b9709143e1f593f0000001817f30644e72e131a029b85045b68181585d2833e84879b9709143e1f593f000000103840894507f30644e72e131a029b85045b68181585d2833e84879b9709143e1f593f00000017f30644e427ce32d4886b01bfe313ba1dba6db8b2045d128178a7164500e0a6c11820990506110288660027f30644e72e131a029b85045b68181585d2833e84879b9709143e1f593f00000010387612950565b94507f30644e72e131a029b85045b68181585d2833e84879b9709143e1f593f000000185820990507f30644e72e131a029b85045b68181585d2833e84879b9709143e1f593f0000001848209915050949350505050565b6000808452600060208501528160408501528260608501526000608085015360306081850153600060828501536042608385015360536084850153604260858501536032608685015360326087850153602d608885015360506089850153606c608a850153606f608b850153606e608c850153606b608d850153600b608e850153602084608f8660025afa8061111857611117610389565b5b8451600160208701536042602187015360536022870153604260238701536032602487015360326025870153602d602687015360506027870153606c6028870153606f6029870153606e602a870153606b602b870153600b602c870153602086602d8860025afa91508161118f5761118e610389565b5b808651186020870152600260408701536042604187015360536042870153604260438701536032604487015360326045870153602d604687015360506047870153606c6048870153606f6049870153606e604a870153606b604b870153600b604c87015360208601602081602d8360025afa92508261121157611210610389565b5b7f30644e72e131a029b85045b68181585d2833e84879b9709143e1f593f00000017001000000000000000000000000000000008851099350602087015160801c7f30644e72e131a029b85045b68181585d2833e84879b9709143e1f593f00000018186089450505050509392505050565b604051610220604051016101a08201517f30644e72e131a029b85045b68181585d2833e84879b9709143e1f593f000000160017f30644e72e131a029b85045b68181585d2833e84879b9709143e1f593f00000010360608501510861130b8360027f30644e72e131a029b85045b68181585d2833e84879b9709143e1f593f00000010383612950565b90507f30644e72e131a029b85045b68181585d2833e84879b9709143e1f593f00000017f30644e427ce32d4886b01bfe313ba1dba6db8b2045d128178a7164500e0a6c11820990507f30644e72e131a029b85045b68181585d2833e84879b9709143e1f593f0000001828209915060008401517f30644e72e131a029b85045b68181585d2833e84879b9709143e1f593f000000181840992507f30644e72e131a029b85045b68181585d2833e84879b9709143e1f593f000000181840992508260808601525050505050565b6040516102208101610140820151815261016082015160208201526102c083013560408201526102e08301356060820152610220830135608082015261024083013560a082015261030083013560c082015261032083013560e082015260608201516101008201526101c08201516101208201526020816101408360025afa80611464576114636103e8565b5b7f30644e72e131a029b85045b68181585d2833e84879b9709143e1f593f00000018251069050816040810192506102c085013581526102e085013560208201526114b483836103008801846128a8565b61014084016114c984846102208901846128a8565b61012085016114dd846102608901836128fe565b846040810195507f1fa4be93b5e7f7e674d5059b63554fab99638b304ed8310e9fa44c281ac9b03b81527f1a01ae7fac6228e39d3cb5a5e71fd31160f3241e79a5f48ffb3737e6c389b72160208201528151604082015260408160608360075afa8061154c5761154b610389565b5b6020820180517f30644e72e131a029b85045b68181585d97816a916871ca8d3c208c16d87cfd4703815261158288848788612760565b8760408901985061159d8960608c01516102c08e018461281b565b7f30644e72e131a029b85045b68181585d2833e84879b9709143e1f593f00000017f0c9fabc7845d50d2852e2a0371c6441f145e0db82e8326961c25f1e3e32b045b60608c0151097f30644e72e131a029b85045b68181585d2833e84879b9709143e1f593f0000001818a09985061161b8a8a6103008f01856128a8565b6116278a83898a612760565b6020880180517f30644e72e131a029b85045b68181585d97816a916871ca8d3c208c16d87cfd4703815287518b52602088015160208c01527f198e9393920d483a7260bfb731fb5d25f1aa493335a9e71297e485b7aef312c260408c01527f1800deef121f1e76426a00665e5c4479674322d4f75edadd46debd5cd992f6ed60608c01527f090689d0585ff075ec9e99ad690c3395bc4b313370b38ef355acdadcd122975b60808c01527f12c85ea5db8c6deb4aab71808dcb408fe3d1e7690c43d37b4ce6cc0166fa7daa60a08c0152885160c08c0152602089015160e08c01527f22f1acbb03c4508760c2430af35865e7cdf9f3eb1224504fdcc3708ddb954a486101008c01527f2a344fad01c2ed0ed73142ae1752429eaea515c6f3f6b941103cc21c2308e1cb6101208c01527f159f15b842ba9c8449aa3268f981010d4c7142e5193473d80b464e964845c3f86101408c01527f0efd30ac7b6f8d0d3ccbc2207587c2acbad1532dc0293f0d034cf8258cd428b36101608c01526117ad8b6117bc565b50505050505050505050505050565b604051602060006101808460085afa6000516101e083015180838316169150816101e08501525050505050565b6040516102206040510160208101604082016101c084015180610140860160a087015161014088015260c0870151610160880152610280880135610120880152611838868360e08a0184612852565b61184b826102a08a016101208a016128fe565b7f30644e72e131a029b85045b68181585d2833e84879b9709143e1f593f00000018383099150611884868360008b016101408b016128a8565b611897826101808a016101208a016128fe565b7f30644e72e131a029b85045b68181585d2833e84879b9709143e1f593f000000183830991506118cc868360408b01846128a8565b6118df826101a08a016101208a016128fe565b7f30644e72e131a029b85045b68181585d2833e84879b9709143e1f593f00000018383099150611914868360808b01846128a8565b611927826101c08a016101208a016128fe565b7f30644e72e131a029b85045b68181585d2833e84879b9709143e1f593f000000183830991507f131775ddcda187b52cc0b6f9c4a91bbeeb2a7fff859925accb034a207fabdc1286527f1268873594cdb041e410ced0cd5f51b49018f5b5b6ba6af6b6d8aaac7c9747e1855261199f84838884612852565b6119b2826101e08a016101208a016128fe565b7f30644e72e131a029b85045b68181585d2833e84879b9709143e1f593f000000183830991507f08c51e226263b3d4befcd86c5a2e2a64eabf06c2fbd24300634815621fcac2c886527f263aa1c4744731be256888ff42041734626688626db7af479cf3bf3e804cec998552611a2a84838884612852565b611a3d826102008a016101208a016128fe565b61034088017f30644e72e131a029b85045b68181585d2833e84879b9709143e1f593f000000184840992507f2792035b60834ba2677cafe8fa4b80591ea35c985746d338367f98549d0d488b87527f1bc5376cc9d1d402411cfe8bb700a2b7ea407535365cc6a813b17c403fd94c988652611aba85848985612852565b611ac983826101208b016128fe565b602081019050505050505050505050565b604051610220604051016467616d6d6181526060820151602082015260a0820151604082015260c0820151606082015260e0820151608082015261010082015160a082015260c06000840160c08301377f131775ddcda187b52cc0b6f9c4a91bbeeb2a7fff859925accb034a207fabdc126101808201527f1268873594cdb041e410ced0cd5f51b49018f5b5b6ba6af6b6d8aaac7c9747e16101a08201527f08c51e226263b3d4befcd86c5a2e2a64eabf06c2fbd24300634815621fcac2c86101c08201527f263aa1c4744731be256888ff42041734626688626db7af479cf3bf3e804cec996101e08201526102007f2792035b60834ba2677cafe8fa4b80591ea35c985746d338367f98549d0d488b818301527f1bc5376cc9d1d402411cfe8bb700a2b7ea407535365cc6a813b17c403fd94c9860208201830152604081019050610280840135818301526102a084013560208201830152610180840135604082018301526101a0840135606082018301526101c0840135608082018301526101e084013560a0820183015261020084013560c0820183015260e081018201610340850160005b6001811015611ca65781358352602082019150602083019250600181019050611c82565b506102608601358252601b600360010260170160208102600501905060206101c088018284890160025afa80611cdf57611cde610389565b5b7f30644e72e131a029b85045b68181585d2833e84879b9709143e1f593f00000016101c0890151066101c0890152505050505050505050565b604051610220604051017f2001a8e61c4029b6e68a1029c5e43c6265ef43e31fb036598ec4acbc823447bb81527f0bece7c9ec39b2a943717de87235810e71d3caad917290158b8dc88f6b2d04046020820152611d82604082016101808501358360e086016127e4565b7f262844f03c48bb4649dd41e0e79fba5439c7f4977be33d0552f833b4ec076d7e81527f2a3e7cbc822d6c632a5a6e57c460764e8a2927f7fcb11a6f83d79cb8f23d5cc06020820152611de2604082016101a08501358360e08601612852565b7f30644e72e131a029b85045b68181585d2833e84879b9709143e1f593f00000016101a0840135610180850135097f10a542641b3711307f371c3aedafc127045d5c71bdd208905bd3aab5ee737db382527f09c0cb1104e1ad7234151a7620d16104832ef78c6057a15da7b4ae43daf0d2176020830152611e6b60408301828460e08701612852565b7f24fa29d61c341a39dbbfeca49aebec47aa19904e0f17e0c6368310eca1593eea82527f14304c61499c73ecaa370dee1ee0960d1d7fc0cec3dbd69815b978d94e8fbd8d6020830152611ecb604083016101c08601358460e08701612852565b7f02293d4355cfe017f557ec6f1b454d2a9b4bd96fc94278c0ed04be793d20f38182527f303a6711de550cea639bc054bf85f573af043030d7a3bb5da0ca4a7e008418466020830152611f29604083018360e0860160e08701612760565b6103408401610360850160005b6001811015611f77578135855260208201356020860152611f606040860184358760e08a01612852565b602083019250604082019150600181019050611f36565b507f25c0c05f4b72b925d77f400e4cce59e0145c99c34bc3136aeeedc87b049dd34884527f1b8ac7f02a5384133c46e44c552c6aee0feea68602e4d358c1c7eb8e9b31bb5d6020850152611fd360408501888660e08901612852565b61022086013584526102408601356020850152611ff860408501898660e08901612852565b5050505050505050565b60405160208101516040820151606083015160008401517f30644e72e131a029b85045b68181585d2833e84879b9709143e1f593f000000184610260880135097f30644e72e131a029b85045b68181585d2833e84879b9709143e1f593f00000016101e088013586097f30644e72e131a029b85045b68181585d2833e84879b9709143e1f593f0000001610180890135820890507f30644e72e131a029b85045b68181585d2833e84879b9709143e1f593f000000185820890507f30644e72e131a029b85045b68181585d2833e84879b9709143e1f593f000000161020089013587097f30644e72e131a029b85045b68181585d2833e84879b9709143e1f593f00000016101a08a0135820890507f30644e72e131a029b85045b68181585d2833e84879b9709143e1f593f000000186820890507f30644e72e131a029b85045b68181585d2833e84879b9709143e1f593f00000018284097f30644e72e131a029b85045b68181585d2833e84879b9709143e1f593f000000182820990507f30644e72e131a029b85045b68181585d2833e84879b9709143e1f593f000000185820990507f30644e72e131a029b85045b68181585d2833e84879b9709143e1f593f0000001600580097f30644e72e131a029b85045b68181585d2833e84879b9709143e1f593f0000001878a097f30644e72e131a029b85045b68181585d2833e84879b9709143e1f593f00000016101808d0135820895507f30644e72e131a029b85045b68181585d2833e84879b9709143e1f593f000000189870895507f30644e72e131a029b85045b68181585d2833e84879b9709143e1f593f00000016005820994507f30644e72e131a029b85045b68181585d2833e84879b9709143e1f593f00000016101a08d0135860894507f30644e72e131a029b85045b68181585d2833e84879b9709143e1f593f000000189860894507f30644e72e131a029b85045b68181585d2833e84879b9709143e1f593f000000182820993507f30644e72e131a029b85045b68181585d2833e84879b9709143e1f593f00000016101c08d0135850893507f30644e72e131a029b85045b68181585d2833e84879b9709143e1f593f000000189850893507f30644e72e131a029b85045b68181585d2833e84879b9709143e1f593f00000018587097f30644e72e131a029b85045b68181585d2833e84879b9709143e1f593f00000018582099050807f30644e72e131a029b85045b68181585d2833e84879b9709143e1f593f00000010390507f30644e72e131a029b85045b68181585d2833e84879b9709143e1f593f000000188820990507f30644e72e131a029b85045b68181585d2833e84879b9709143e1f593f000000160808d0151820890506123f981858f611d18565b50505050505050505050505050565b60405160026301000000016102206040510161242981836060860151612950565b61243c8282610140880160a0880161281b565b61245282610100870160a0870160a088016127a2565b612464828260a0870160a088016127e4565b6124798260c0870160a0870160a088016127a2565b5050505050565b604051610220604051017f30644e72e131a029b85045b68181585d2833e84879b9709143e1f593f000000160208301516101e08501350981527f30644e72e131a029b85045b68181585d2833e84879b9709143e1f593f0000001604083015182510881527f30644e72e131a029b85045b68181585d2833e84879b9709143e1f593f00000016101808401358251088152602081017f30644e72e131a029b85045b68181585d2833e84879b9709143e1f593f000000160208401516102008601350981527f30644e72e131a029b85045b68181585d2833e84879b9709143e1f593f0000001604084015182510881527f30644e72e131a029b85045b68181585d2833e84879b9709143e1f593f00000016101a08501358251088152604082017f30644e72e131a029b85045b68181585d2833e84879b9709143e1f593f000000160408501516101c08701350881527f30644e72e131a029b85045b68181585d2833e84879b9709143e1f593f0000001825184510983527f30644e72e131a029b85045b68181585d2833e84879b9709143e1f593f0000001815184510983527f30644e72e131a029b85045b68181585d2833e84879b9709143e1f593f0000001600085015184510983527f30644e72e131a029b85045b68181585d2833e84879b9709143e1f593f00000016102608601358451098352606083017f30644e72e131a029b85045b68181585d2833e84879b9709143e1f593f00000016101808601516102a08801350881527f30644e72e131a029b85045b68181585d2833e84879b9709143e1f593f0000001845182510881527f30644e72e131a029b85045b68181585d2833e84879b9709143e1f593f000000160808601517f30644e72e131a029b85045b68181585d2833e84879b9709143e1f593f00000010382510881527f30644e72e131a029b85045b68181585d2833e84879b9709143e1f593f00000016101a086015161028088013509835282518151146101e0860152505050505050565b6040518251855260208301516020860152835160408601526020840151606086015260408260808760065afa8061279a5761279961020d565b5b505050505050565b6040518251855260208301516020860152833560408601526020840135606086015260408260808760065afa806127dc576127db61020d565b5b505050505050565b604051825185526020830151602086015283604086015260408260608760075afa806128135761281261020d565b5b505050505050565b604051823585526020830135602086015283604086015260408260608760075afa8061284a5761284961020d565b5b505050505050565b604051825185526020830151602086015283604086015260408560608760075afa825160408701526020830151606087015260408360808860065afa81169050806128a05761289f61020d565b5b505050505050565b604051823585526020830135602086015283604086015260408560608760075afa825160408701526020830151606087015260408360808860065afa81169050806128f6576128f561020d565b5b505050505050565b7f30644e72e131a029b85045b68181585d2833e84879b9709143e1f593f0000001838335097f30644e72e131a029b85045b68181585d2833e84879b9709143e1f593f000000181835108825250505050565b600060208452602080850152602060408501528160608501528260808501527f30644e72e131a029b85045b68181585d2833e84879b9709143e1f593f000000160a085015260208460c08660055afa600081036129b0576129af610389565b5b84519150509392505050565b50505050505050949350505050565b600080fd5b600080fd5b600080fd5b600080fd5b600080fd5b60008083601f8401126129fa576129f96129d5565b5b8235905067ffffffffffffffff811115612a1757612a166129da565b5b602083019150836001820283011115612a3357612a326129df565b5b9250929050565b60008083601f840112612a5057612a4f6129d5565b5b8235905067ffffffffffffffff811115612a6d57612a6c6129da565b5b602083019150836020820283011115612a8957612a886129df565b5b9250929050565b60008060008060408587031215612aaa57612aa96129cb565b5b600085013567ffffffffffffffff811115612ac857612ac76129d0565b5b612ad4878288016129e4565b9450945050602085013567ffffffffffffffff811115612af757612af66129d0565b5b612b0387828801612a3a565b925092505092959194509250565b60008115159050919050565b612b2681612b11565b82525050565b6000602082019050612b416000830184612b1d565b9291505056fea2646970667358221220a500089d43c160b3b2a764f280e9378d9abe3dee569dcb272b2adc6c84f0612064736f6c63430008130033","opcodes":"PUSH1 0x80 PUSH1 0x40 MSTORE CALLVALUE DUP1 ISZERO PUSH2 0x10 JUMPI PUSH1 0x0 DUP1 REVERT JUMPDEST POP PUSH2 0x2B7D DUP1 PUSH2 0x20 PUSH1 0x0 CODECOPY PUSH1 0x0 RETURN INVALID PUSH1 0x80 PUSH1 0x40 MSTORE CALLVALUE DUP1 ISZERO PUSH2 0x10 JUMPI PUSH1 0x0 DUP1 REVERT JUMPDEST POP PUSH1 0x4 CALLDATASIZE LT PUSH2 0x2B JUMPI PUSH1 0x0 CALLDATALOAD PUSH1 0xE0 SHR DUP1 PUSH4 0x7E4F7A8A EQ PUSH2 0x30 JUMPI JUMPDEST PUSH1 0x0 DUP1 REVERT JUMPDEST PUSH2 0x4A PUSH1 0x4 DUP1 CALLDATASIZE SUB DUP2 ADD SWAP1 PUSH2 0x45 SWAP2 SWAP1 PUSH2 0x2A90 JUMP JUMPDEST PUSH2 0x60 JUMP JUMPDEST PUSH1 0x40 MLOAD PUSH2 0x57 SWAP2 SWAP1 PUSH2 0x2B2C JUMP JUMPDEST PUSH1 0x40 MLOAD DUP1 SWAP2 SUB SWAP1 RETURN JUMPDEST PUSH1 0x0 PUSH1 0x40 MLOAD PUSH2 0x220 DUP2 ADD PUSH2 0x73 DUP5 PUSH2 0x447 JUMP JUMPDEST PUSH2 0x7D DUP6 DUP6 PUSH2 0x45B JUMP JUMPDEST PUSH2 0x86 DUP7 PUSH2 0x4B5 JUMP JUMPDEST PUSH2 0x8F DUP8 PUSH2 0x4D2 JUMP JUMPDEST PUSH1 0x0 PUSH2 0x9C DUP7 DUP7 DUP11 PUSH2 0x6AA JUMP JUMPDEST SWAP1 POP PUSH2 0xA7 DUP2 PUSH2 0x9F2 JUMP JUMPDEST SWAP1 POP PUSH2 0xB3 DUP2 DUP10 PUSH2 0xA5A JUMP JUMPDEST SWAP1 POP PUSH2 0xBF DUP2 DUP10 PUSH2 0xAF1 JUMP JUMPDEST PUSH1 0x60 DUP4 ADD MLOAD PUSH32 0x30644E72E131A029B85045B68181585D2833E84879B9709143E1F593F0000001 PUSH1 0x1 PUSH32 0x30644E72E131A029B85045B68181585D2833E84879B9709143E1F593F0000001 SUB PUSH2 0x118 DUP6 PUSH4 0x1000000 DUP6 PUSH2 0x2950 JUMP JUMPDEST ADDMOD DUP1 PUSH2 0x1A0 DUP7 ADD MSTORE PUSH2 0x12B DUP5 DUP9 DUP11 PUSH2 0xB5F JUMP JUMPDEST PUSH2 0x136 DUP6 DUP10 DUP14 PUSH2 0xEC6 JUMP JUMPDEST PUSH32 0x30644E72E131A029B85045B68181585D2833E84879B9709143E1F593F0000001 DUP3 DUP3 ADDMOD SWAP2 POP DUP2 PUSH2 0x180 DUP9 ADD MSTORE PUSH2 0x16B PUSH2 0x1282 JUMP JUMPDEST PUSH2 0x174 DUP13 PUSH2 0x2480 JUMP JUMPDEST PUSH2 0x17D DUP13 PUSH2 0x2408 JUMP JUMPDEST PUSH2 0x186 DUP13 PUSH2 0x2002 JUMP JUMPDEST PUSH2 0x18F DUP13 PUSH2 0x1ADA JUMP JUMPDEST PUSH2 0x198 DUP13 PUSH2 0x17E9 JUMP JUMPDEST PUSH2 0x1A1 DUP13 PUSH2 0x13D7 JUMP JUMPDEST PUSH2 0x1E0 DUP8 ADD MLOAD SWAP8 POP PUSH2 0x29BC JUMP JUMPDEST PUSH1 0x40 MLOAD PUSH32 0x8C379A000000000000000000000000000000000000000000000000000000000 DUP2 MSTORE PUSH1 0x20 PUSH1 0x4 DUP3 ADD MSTORE PUSH1 0x1D PUSH1 0x24 DUP3 ADD MSTORE PUSH32 0x77726F6E67206E756D626572206F66207075626C696320696E70757473000000 PUSH1 0x44 DUP3 ADD MSTORE PUSH1 0x64 DUP2 REVERT JUMPDEST PUSH1 0x40 MLOAD PUSH32 0x8C379A000000000000000000000000000000000000000000000000000000000 DUP2 MSTORE PUSH1 0x20 PUSH1 0x4 DUP3 ADD MSTORE PUSH1 0x12 PUSH1 0x24 DUP3 ADD MSTORE PUSH32 0x6572726F72206563206F7065726174696F6E0000000000000000000000000000 PUSH1 0x44 DUP3 ADD MSTORE PUSH1 0x64 DUP2 REVERT JUMPDEST PUSH1 0x40 MLOAD PUSH32 0x8C379A000000000000000000000000000000000000000000000000000000000 DUP2 MSTORE PUSH1 0x20 PUSH1 0x4 DUP3 ADD MSTORE PUSH1 0x18 PUSH1 0x24 DUP3 ADD MSTORE PUSH32 0x696E707574732061726520626967676572207468616E20720000000000000000 PUSH1 0x44 DUP3 ADD MSTORE PUSH1 0x64 DUP2 REVERT JUMPDEST PUSH1 0x40 MLOAD PUSH32 0x8C379A000000000000000000000000000000000000000000000000000000000 DUP2 MSTORE PUSH1 0x20 PUSH1 0x4 DUP3 ADD MSTORE PUSH1 0x10 PUSH1 0x24 DUP3 ADD MSTORE PUSH32 0x77726F6E672070726F6F662073697A6500000000000000000000000000000000 PUSH1 0x44 DUP3 ADD MSTORE PUSH1 0x64 DUP2 REVERT JUMPDEST PUSH1 0x40 MLOAD PUSH32 0x8C379A000000000000000000000000000000000000000000000000000000000 DUP2 MSTORE PUSH1 0x20 PUSH1 0x4 DUP3 ADD MSTORE PUSH1 0x16 PUSH1 0x24 DUP3 ADD MSTORE PUSH32 0x6F70656E696E677320626967676572207468616E207200000000000000000000 PUSH1 0x44 DUP3 ADD MSTORE PUSH1 0x64 DUP2 REVERT JUMPDEST PUSH1 0x40 MLOAD PUSH32 0x8C379A000000000000000000000000000000000000000000000000000000000 DUP2 MSTORE PUSH1 0x20 PUSH1 0x4 DUP3 ADD MSTORE PUSH1 0xC PUSH1 0x24 DUP3 ADD MSTORE PUSH32 0x6572726F72207665726966790000000000000000000000000000000000000000 PUSH1 0x44 DUP3 ADD MSTORE PUSH1 0x64 DUP2 REVERT JUMPDEST PUSH1 0x40 MLOAD PUSH32 0x8C379A000000000000000000000000000000000000000000000000000000000 DUP2 MSTORE PUSH1 0x20 PUSH1 0x4 DUP3 ADD MSTORE PUSH1 0x14 PUSH1 0x24 DUP3 ADD MSTORE PUSH32 0x6572726F722072616E646F6D2067656E206B7A67000000000000000000000000 PUSH1 0x44 DUP3 ADD MSTORE PUSH1 0x64 DUP2 REVERT JUMPDEST PUSH1 0x40 DUP2 EQ PUSH2 0x458 JUMPI PUSH2 0x457 PUSH2 0x1AE JUMP JUMPDEST JUMPDEST POP JUMP JUMPDEST PUSH1 0x1 PUSH1 0x0 JUMPDEST DUP3 DUP2 LT ISZERO PUSH2 0x4A1 JUMPI PUSH32 0x30644E72E131A029B85045B68181585D2833E84879B9709143E1F593F0000001 DUP5 CALLDATALOAD LT DUP3 AND SWAP2 POP PUSH1 0x20 DUP5 ADD SWAP4 POP PUSH1 0x1 DUP2 ADD SWAP1 POP PUSH2 0x460 JUMP JUMPDEST POP DUP1 PUSH2 0x4B0 JUMPI PUSH2 0x4AF PUSH2 0x26C JUMP JUMPDEST JUMPDEST POP POP POP JUMP JUMPDEST PUSH1 0x60 PUSH1 0x1 MUL PUSH2 0x340 ADD DUP1 DUP3 EQ PUSH2 0x4CE JUMPI PUSH2 0x4CD PUSH2 0x2CB JUMP JUMPDEST JUMPDEST POP POP JUMP JUMPDEST PUSH1 0x1 PUSH2 0x2A0 DUP3 ADD PUSH32 0x30644E72E131A029B85045B68181585D2833E84879B9709143E1F593F0000001 DUP2 CALLDATALOAD LT DUP3 AND SWAP2 POP PUSH2 0x280 DUP4 ADD SWAP1 POP PUSH32 0x30644E72E131A029B85045B68181585D2833E84879B9709143E1F593F0000001 DUP2 CALLDATALOAD LT DUP3 AND SWAP2 POP PUSH2 0x180 DUP4 ADD SWAP1 POP PUSH32 0x30644E72E131A029B85045B68181585D2833E84879B9709143E1F593F0000001 DUP2 CALLDATALOAD LT DUP3 AND SWAP2 POP PUSH2 0x1A0 DUP4 ADD SWAP1 POP PUSH32 0x30644E72E131A029B85045B68181585D2833E84879B9709143E1F593F0000001 DUP2 CALLDATALOAD LT DUP3 AND SWAP2 POP PUSH2 0x1C0 DUP4 ADD SWAP1 POP PUSH32 0x30644E72E131A029B85045B68181585D2833E84879B9709143E1F593F0000001 DUP2 CALLDATALOAD LT DUP3 AND SWAP2 POP PUSH2 0x1E0 DUP4 ADD SWAP1 POP PUSH32 0x30644E72E131A029B85045B68181585D2833E84879B9709143E1F593F0000001 DUP2 CALLDATALOAD LT DUP3 AND SWAP2 POP PUSH2 0x200 DUP4 ADD SWAP1 POP PUSH32 0x30644E72E131A029B85045B68181585D2833E84879B9709143E1F593F0000001 DUP2 CALLDATALOAD LT DUP3 AND SWAP2 POP PUSH2 0x260 DUP4 ADD SWAP1 POP PUSH32 0x30644E72E131A029B85045B68181585D2833E84879B9709143E1F593F0000001 DUP2 CALLDATALOAD LT DUP3 AND SWAP2 POP PUSH2 0x340 DUP4 ADD SWAP1 POP PUSH1 0x0 JUMPDEST PUSH1 0x1 DUP2 LT ISZERO PUSH2 0x696 JUMPI PUSH32 0x30644E72E131A029B85045B68181585D2833E84879B9709143E1F593F0000001 DUP3 CALLDATALOAD LT DUP4 AND SWAP3 POP PUSH1 0x20 DUP3 ADD SWAP2 POP PUSH1 0x1 DUP2 ADD SWAP1 POP PUSH2 0x654 JUMP JUMPDEST POP DUP2 PUSH2 0x6A5 JUMPI PUSH2 0x6A4 PUSH2 0x32A JUMP JUMPDEST JUMPDEST POP POP POP JUMP JUMPDEST PUSH1 0x0 PUSH1 0x40 MLOAD PUSH2 0x220 DUP2 ADD PUSH5 0x67616D6D61 DUP2 MSTORE PUSH32 0x131775DDCDA187B52CC0B6F9C4A91BBEEB2A7FFF859925ACCB034A207FABDC12 PUSH1 0x20 DUP3 ADD MSTORE PUSH32 0x1268873594CDB041E410CED0CD5F51B49018F5B5B6BA6AF6B6D8AAAC7C9747E1 PUSH1 0x40 DUP3 ADD MSTORE PUSH32 0x8C51E226263B3D4BEFCD86C5A2E2A64EABF06C2FBD24300634815621FCAC2C8 PUSH1 0x60 DUP3 ADD MSTORE PUSH32 0x263AA1C4744731BE256888FF42041734626688626DB7AF479CF3BF3E804CEC99 PUSH1 0x80 DUP3 ADD MSTORE PUSH32 0x25C0C05F4B72B925D77F400E4CCE59E0145C99C34BC3136AEEEDC87B049DD348 PUSH1 0xA0 DUP3 ADD MSTORE PUSH32 0x1B8AC7F02A5384133C46E44C552C6AEE0FEEA68602E4D358C1C7EB8E9B31BB5D PUSH1 0xC0 DUP3 ADD MSTORE PUSH32 0x2001A8E61C4029B6E68A1029C5E43C6265EF43E31FB036598EC4ACBC823447BB PUSH1 0xE0 DUP3 ADD MSTORE PUSH32 0xBECE7C9EC39B2A943717DE87235810E71D3CAAD917290158B8DC88F6B2D0404 PUSH2 0x100 DUP3 ADD MSTORE PUSH32 0x262844F03C48BB4649DD41E0E79FBA5439C7F4977BE33D0552F833B4EC076D7E PUSH2 0x120 DUP3 ADD MSTORE PUSH32 0x2A3E7CBC822D6C632A5A6E57C460764E8A2927F7FCB11A6F83D79CB8F23D5CC0 PUSH2 0x140 DUP3 ADD MSTORE PUSH32 0x10A542641B3711307F371C3AEDAFC127045D5C71BDD208905BD3AAB5EE737DB3 PUSH2 0x160 DUP3 ADD MSTORE PUSH32 0x9C0CB1104E1AD7234151A7620D16104832EF78C6057A15DA7B4AE43DAF0D217 PUSH2 0x180 DUP3 ADD MSTORE PUSH32 0x24FA29D61C341A39DBBFECA49AEBEC47AA19904E0F17E0C6368310ECA1593EEA PUSH2 0x1A0 DUP3 ADD MSTORE PUSH32 0x14304C61499C73ECAA370DEE1EE0960D1D7FC0CEC3DBD69815B978D94E8FBD8D PUSH2 0x1C0 DUP3 ADD MSTORE PUSH32 0x2293D4355CFE017F557EC6F1B454D2A9B4BD96FC94278C0ED04BE793D20F381 PUSH2 0x1E0 DUP3 ADD MSTORE PUSH32 0x303A6711DE550CEA639BC054BF85F573AF043030D7A3BB5DA0CA4A7E00841846 PUSH2 0x200 DUP3 ADD MSTORE PUSH32 0x2792035B60834BA2677CAFE8FA4B80591EA35C985746D338367F98549D0D488B PUSH2 0x220 DUP3 ADD MSTORE PUSH32 0x1BC5376CC9D1D402411CFE8BB700A2B7EA407535365CC6A813B17C403FD94C98 PUSH2 0x240 DUP3 ADD MSTORE PUSH2 0x260 DUP2 ADD PUSH1 0x20 DUP7 MUL DUP1 DUP9 DUP4 CALLDATACOPY DUP1 DUP3 ADD SWAP2 POP PUSH1 0xC0 DUP1 DUP8 DUP5 CALLDATACOPY DUP1 DUP4 ADD SWAP3 POP DUP2 PUSH2 0x2C5 ADD PUSH1 0x40 PUSH1 0x1 MUL DUP2 ADD SWAP1 POP PUSH1 0x20 DUP6 DUP3 PUSH1 0x1B DUP9 ADD PUSH1 0x2 GAS STATICCALL DUP1 PUSH2 0x9B8 JUMPI PUSH2 0x9B7 PUSH2 0x389 JUMP JUMPDEST JUMPDEST DUP6 MLOAD SWAP8 POP PUSH32 0x30644E72E131A029B85045B68181585D2833E84879B9709143E1F593F0000001 DUP9 MOD PUSH1 0x40 DUP9 ADD MSTORE POP POP POP POP POP POP POP SWAP4 SWAP3 POP POP POP JUMP JUMPDEST PUSH1 0x0 PUSH1 0x40 MLOAD PUSH2 0x220 PUSH1 0x40 MLOAD ADD PUSH4 0x62657461 DUP2 MSTORE DUP4 PUSH1 0x20 DUP3 ADD MSTORE PUSH1 0x20 DUP2 PUSH1 0x24 PUSH1 0x1C DUP5 ADD PUSH1 0x2 GAS STATICCALL DUP1 PUSH2 0xA26 JUMPI PUSH2 0xA25 PUSH2 0x389 JUMP JUMPDEST JUMPDEST DUP2 MLOAD SWAP4 POP PUSH32 0x30644E72E131A029B85045B68181585D2833E84879B9709143E1F593F0000001 DUP5 MOD PUSH1 0x20 DUP5 ADD MSTORE POP POP POP SWAP2 SWAP1 POP JUMP JUMPDEST PUSH1 0x0 PUSH1 0x40 MLOAD PUSH2 0x220 PUSH1 0x40 MLOAD ADD PUSH1 0x65 PUSH5 0x616C706861 DUP3 MSTORE PUSH1 0x20 DUP3 ADD DUP7 DUP2 MSTORE PUSH1 0x20 DUP2 ADD SWAP1 POP PUSH2 0x360 DUP7 ADD PUSH1 0x1 PUSH1 0x40 MUL DUP1 DUP3 DUP5 CALLDATACOPY DUP1 DUP4 ADD SWAP3 POP DUP1 DUP5 ADD SWAP4 POP PUSH1 0x40 PUSH2 0x220 DUP10 ADD DUP5 CALLDATACOPY PUSH1 0x20 DUP6 DUP6 PUSH1 0x1B DUP9 ADD PUSH1 0x2 GAS STATICCALL DUP1 PUSH2 0xAB8 JUMPI PUSH2 0xAB7 PUSH2 0x389 JUMP JUMPDEST JUMPDEST DUP6 MLOAD SWAP8 POP PUSH32 0x30644E72E131A029B85045B68181585D2833E84879B9709143E1F593F0000001 DUP9 MOD PUSH1 0x0 DUP9 ADD MSTORE POP POP POP POP POP POP POP SWAP3 SWAP2 POP POP JUMP JUMPDEST PUSH1 0x40 MLOAD PUSH2 0x220 PUSH1 0x40 MLOAD ADD PUSH4 0x7A657461 DUP2 MSTORE DUP4 PUSH1 0x20 DUP3 ADD MSTORE PUSH1 0xC0 DUP1 DUP5 ADD PUSH1 0x40 DUP4 ADD CALLDATACOPY PUSH1 0x20 DUP2 PUSH1 0xE4 PUSH1 0x1C DUP5 ADD PUSH1 0x2 GAS STATICCALL DUP1 PUSH2 0xB2D JUMPI PUSH2 0xB2C PUSH2 0x389 JUMP JUMPDEST JUMPDEST DUP2 MLOAD PUSH32 0x30644E72E131A029B85045B68181585D2833E84879B9709143E1F593F0000001 DUP2 MOD PUSH1 0x60 DUP6 ADD MSTORE POP POP POP POP POP POP JUMP JUMPDEST PUSH1 0x0 PUSH1 0x40 MLOAD PUSH1 0x60 DUP2 ADD MLOAD PUSH2 0x1A0 DUP3 ADD MLOAD DUP7 PUSH2 0xB7C DUP2 DUP9 DUP5 DUP7 PUSH2 0xBFA JUMP JUMPDEST PUSH1 0x0 DUP1 JUMPDEST DUP9 DUP2 LT ISZERO PUSH2 0xBED JUMPI PUSH32 0x30644E72E131A029B85045B68181585D2833E84879B9709143E1F593F0000001 DUP9 CALLDATALOAD DUP5 MLOAD MULMOD SWAP2 POP PUSH32 0x30644E72E131A029B85045B68181585D2833E84879B9709143E1F593F0000001 DUP3 DUP9 ADDMOD SWAP7 POP PUSH1 0x20 DUP4 ADD SWAP3 POP PUSH1 0x20 DUP9 ADD SWAP8 POP PUSH1 0x1 DUP2 ADD SWAP1 POP PUSH2 0xB80 JUMP JUMPDEST POP POP POP POP POP POP SWAP4 SWAP3 POP POP POP JUMP JUMPDEST PUSH32 0x30644E72E131A029B85045B68181585D2833E84879B9709143E1F593F0000001 PUSH32 0x30644E427CE32D4886B01BFE313BA1DBA6DB8B2045D128178A7164500E0A6C11 DUP4 MULMOD PUSH1 0x1 DUP6 PUSH1 0x0 JUMPDEST DUP7 DUP2 LT ISZERO PUSH2 0xCEB JUMPI PUSH32 0x30644E72E131A029B85045B68181585D2833E84879B9709143E1F593F0000001 DUP4 PUSH32 0x30644E72E131A029B85045B68181585D2833E84879B9709143E1F593F0000001 SUB DUP7 ADDMOD DUP3 MSTORE PUSH32 0x30644E72E131A029B85045B68181585D2833E84879B9709143E1F593F0000001 PUSH32 0xC9FABC7845D50D2852E2A0371C6441F145E0DB82E8326961C25F1E3E32B045B DUP5 MULMOD SWAP3 POP PUSH1 0x20 DUP3 ADD SWAP2 POP PUSH1 0x1 DUP2 ADD SWAP1 POP PUSH2 0xC44 JUMP JUMPDEST POP PUSH2 0xCF7 DUP2 DUP8 DUP10 PUSH2 0xDB4 JUMP JUMPDEST DUP7 SWAP1 POP PUSH1 0x1 SWAP2 POP PUSH1 0x0 JUMPDEST DUP7 DUP2 LT ISZERO PUSH2 0xDAA JUMPI PUSH32 0x30644E72E131A029B85045B68181585D2833E84879B9709143E1F593F0000001 DUP4 PUSH32 0x30644E72E131A029B85045B68181585D2833E84879B9709143E1F593F0000001 DUP7 DUP6 MLOAD MULMOD MULMOD DUP3 MSTORE PUSH1 0x20 DUP3 ADD SWAP2 POP PUSH32 0x30644E72E131A029B85045B68181585D2833E84879B9709143E1F593F0000001 PUSH32 0xC9FABC7845D50D2852E2A0371C6441F145E0DB82E8326961C25F1E3E32B045B DUP5 MULMOD SWAP3 POP PUSH1 0x1 DUP2 ADD SWAP1 POP PUSH2 0xD01 JUMP JUMPDEST POP POP POP POP POP POP POP POP JUMP JUMPDEST PUSH1 0x1 DUP4 MSTORE PUSH1 0x0 DUP1 JUMPDEST DUP4 DUP2 LT ISZERO PUSH2 0xE0A JUMPI DUP2 DUP6 ADD MLOAD DUP3 DUP5 ADD MLOAD PUSH32 0x30644E72E131A029B85045B68181585D2833E84879B9709143E1F593F0000001 DUP2 DUP4 MULMOD SWAP1 POP PUSH1 0x20 DUP5 ADD SWAP4 POP DUP1 DUP5 DUP9 ADD MSTORE POP POP PUSH1 0x1 DUP2 ADD SWAP1 POP PUSH2 0xDBC JUMP JUMPDEST POP PUSH1 0x20 DUP2 SUB DUP3 ADD SWAP2 POP DUP1 DUP5 ADD SWAP4 POP PUSH2 0xE4A PUSH1 0x20 DUP6 ADD PUSH1 0x2 PUSH32 0x30644E72E131A029B85045B68181585D2833E84879B9709143E1F593F0000001 SUB DUP7 MLOAD PUSH2 0x2950 JUMP JUMPDEST PUSH1 0x0 JUMPDEST DUP5 DUP2 LT ISZERO PUSH2 0xEBE JUMPI PUSH1 0x20 DUP7 SUB SWAP6 POP DUP4 MLOAD PUSH32 0x30644E72E131A029B85045B68181585D2833E84879B9709143E1F593F0000001 DUP8 MLOAD DUP5 MULMOD DUP1 DUP7 MSTORE PUSH32 0x30644E72E131A029B85045B68181585D2833E84879B9709143E1F593F0000001 DUP3 DUP6 MULMOD SWAP4 POP PUSH1 0x20 DUP7 SUB SWAP6 POP POP POP PUSH1 0x1 DUP2 ADD SWAP1 POP PUSH2 0xE4D JUMP JUMPDEST POP POP POP POP POP POP JUMP JUMPDEST PUSH1 0x0 PUSH1 0x40 MLOAD PUSH1 0x60 DUP2 ADD MLOAD PUSH2 0x1A0 DUP3 ADD MLOAD PUSH2 0x360 DUP6 ADD PUSH1 0x0 DUP1 PUSH2 0xEEE DUP11 PUSH1 0x20 DUP6 ADD CALLDATALOAD DUP6 CALLDATALOAD PUSH2 0x107F JUMP JUMPDEST SWAP2 POP PUSH2 0xF01 DUP11 PUSH3 0x870728 DUP12 ADD DUP7 DUP9 PUSH2 0xF3F JUMP JUMPDEST SWAP1 POP PUSH32 0x30644E72E131A029B85045B68181585D2833E84879B9709143E1F593F0000001 DUP1 DUP3 DUP5 MULMOD DUP9 ADDMOD SWAP7 POP PUSH1 0x40 DUP4 ADD SWAP3 POP POP POP POP POP POP POP SWAP4 SWAP3 POP POP POP JUMP JUMPDEST PUSH1 0x0 PUSH2 0xF6C DUP6 DUP6 PUSH32 0xC9FABC7845D50D2852E2A0371C6441F145E0DB82E8326961C25F1E3E32B045B PUSH2 0x2950 JUMP JUMPDEST PUSH32 0x30644E72E131A029B85045B68181585D2833E84879B9709143E1F593F0000001 DUP2 PUSH32 0x30644E72E131A029B85045B68181585D2833E84879B9709143E1F593F0000001 SUB DUP5 ADDMOD SWAP5 POP PUSH32 0x30644E72E131A029B85045B68181585D2833E84879B9709143E1F593F0000001 PUSH32 0x30644E427CE32D4886B01BFE313BA1DBA6DB8B2045D128178A7164500E0A6C11 DUP3 MULMOD SWAP1 POP PUSH2 0x1028 DUP7 PUSH1 0x2 PUSH32 0x30644E72E131A029B85045B68181585D2833E84879B9709143E1F593F0000001 SUB DUP8 PUSH2 0x2950 JUMP JUMPDEST SWAP5 POP PUSH32 0x30644E72E131A029B85045B68181585D2833E84879B9709143E1F593F0000001 DUP6 DUP3 MULMOD SWAP1 POP PUSH32 0x30644E72E131A029B85045B68181585D2833E84879B9709143E1F593F0000001 DUP5 DUP3 MULMOD SWAP2 POP POP SWAP5 SWAP4 POP POP POP POP JUMP JUMPDEST PUSH1 0x0 DUP1 DUP5 MSTORE PUSH1 0x0 PUSH1 0x20 DUP6 ADD MSTORE DUP2 PUSH1 0x40 DUP6 ADD MSTORE DUP3 PUSH1 0x60 DUP6 ADD MSTORE PUSH1 0x0 PUSH1 0x80 DUP6 ADD MSTORE8 PUSH1 0x30 PUSH1 0x81 DUP6 ADD MSTORE8 PUSH1 0x0 PUSH1 0x82 DUP6 ADD MSTORE8 PUSH1 0x42 PUSH1 0x83 DUP6 ADD MSTORE8 PUSH1 0x53 PUSH1 0x84 DUP6 ADD MSTORE8 PUSH1 0x42 PUSH1 0x85 DUP6 ADD MSTORE8 PUSH1 0x32 PUSH1 0x86 DUP6 ADD MSTORE8 PUSH1 0x32 PUSH1 0x87 DUP6 ADD MSTORE8 PUSH1 0x2D PUSH1 0x88 DUP6 ADD MSTORE8 PUSH1 0x50 PUSH1 0x89 DUP6 ADD MSTORE8 PUSH1 0x6C PUSH1 0x8A DUP6 ADD MSTORE8 PUSH1 0x6F PUSH1 0x8B DUP6 ADD MSTORE8 PUSH1 0x6E PUSH1 0x8C DUP6 ADD MSTORE8 PUSH1 0x6B PUSH1 0x8D DUP6 ADD MSTORE8 PUSH1 0xB PUSH1 0x8E DUP6 ADD MSTORE8 PUSH1 0x20 DUP5 PUSH1 0x8F DUP7 PUSH1 0x2 GAS STATICCALL DUP1 PUSH2 0x1118 JUMPI PUSH2 0x1117 PUSH2 0x389 JUMP JUMPDEST JUMPDEST DUP5 MLOAD PUSH1 0x1 PUSH1 0x20 DUP8 ADD MSTORE8 PUSH1 0x42 PUSH1 0x21 DUP8 ADD MSTORE8 PUSH1 0x53 PUSH1 0x22 DUP8 ADD MSTORE8 PUSH1 0x42 PUSH1 0x23 DUP8 ADD MSTORE8 PUSH1 0x32 PUSH1 0x24 DUP8 ADD MSTORE8 PUSH1 0x32 PUSH1 0x25 DUP8 ADD MSTORE8 PUSH1 0x2D PUSH1 0x26 DUP8 ADD MSTORE8 PUSH1 0x50 PUSH1 0x27 DUP8 ADD MSTORE8 PUSH1 0x6C PUSH1 0x28 DUP8 ADD MSTORE8 PUSH1 0x6F PUSH1 0x29 DUP8 ADD MSTORE8 PUSH1 0x6E PUSH1 0x2A DUP8 ADD MSTORE8 PUSH1 0x6B PUSH1 0x2B DUP8 ADD MSTORE8 PUSH1 0xB PUSH1 0x2C DUP8 ADD MSTORE8 PUSH1 0x20 DUP7 PUSH1 0x2D DUP9 PUSH1 0x2 GAS STATICCALL SWAP2 POP DUP2 PUSH2 0x118F JUMPI PUSH2 0x118E PUSH2 0x389 JUMP JUMPDEST JUMPDEST DUP1 DUP7 MLOAD XOR PUSH1 0x20 DUP8 ADD MSTORE PUSH1 0x2 PUSH1 0x40 DUP8 ADD MSTORE8 PUSH1 0x42 PUSH1 0x41 DUP8 ADD MSTORE8 PUSH1 0x53 PUSH1 0x42 DUP8 ADD MSTORE8 PUSH1 0x42 PUSH1 0x43 DUP8 ADD MSTORE8 PUSH1 0x32 PUSH1 0x44 DUP8 ADD MSTORE8 PUSH1 0x32 PUSH1 0x45 DUP8 ADD MSTORE8 PUSH1 0x2D PUSH1 0x46 DUP8 ADD MSTORE8 PUSH1 0x50 PUSH1 0x47 DUP8 ADD MSTORE8 PUSH1 0x6C PUSH1 0x48 DUP8 ADD MSTORE8 PUSH1 0x6F PUSH1 0x49 DUP8 ADD MSTORE8 PUSH1 0x6E PUSH1 0x4A DUP8 ADD MSTORE8 PUSH1 0x6B PUSH1 0x4B DUP8 ADD MSTORE8 PUSH1 0xB PUSH1 0x4C DUP8 ADD MSTORE8 PUSH1 0x20 DUP7 ADD PUSH1 0x20 DUP2 PUSH1 0x2D DUP4 PUSH1 0x2 GAS STATICCALL SWAP3 POP DUP3 PUSH2 0x1211 JUMPI PUSH2 0x1210 PUSH2 0x389 JUMP JUMPDEST JUMPDEST PUSH32 0x30644E72E131A029B85045B68181585D2833E84879B9709143E1F593F0000001 PUSH17 0x100000000000000000000000000000000 DUP9 MLOAD MULMOD SWAP4 POP PUSH1 0x20 DUP8 ADD MLOAD PUSH1 0x80 SHR PUSH32 0x30644E72E131A029B85045B68181585D2833E84879B9709143E1F593F0000001 DUP2 DUP7 ADDMOD SWAP5 POP POP POP POP POP SWAP4 SWAP3 POP POP POP JUMP JUMPDEST PUSH1 0x40 MLOAD PUSH2 0x220 PUSH1 0x40 MLOAD ADD PUSH2 0x1A0 DUP3 ADD MLOAD PUSH32 0x30644E72E131A029B85045B68181585D2833E84879B9709143E1F593F0000001 PUSH1 0x1 PUSH32 0x30644E72E131A029B85045B68181585D2833E84879B9709143E1F593F0000001 SUB PUSH1 0x60 DUP6 ADD MLOAD ADDMOD PUSH2 0x130B DUP4 PUSH1 0x2 PUSH32 0x30644E72E131A029B85045B68181585D2833E84879B9709143E1F593F0000001 SUB DUP4 PUSH2 0x2950 JUMP JUMPDEST SWAP1 POP PUSH32 0x30644E72E131A029B85045B68181585D2833E84879B9709143E1F593F0000001 PUSH32 0x30644E427CE32D4886B01BFE313BA1DBA6DB8B2045D128178A7164500E0A6C11 DUP3 MULMOD SWAP1 POP PUSH32 0x30644E72E131A029B85045B68181585D2833E84879B9709143E1F593F0000001 DUP3 DUP3 MULMOD SWAP2 POP PUSH1 0x0 DUP5 ADD MLOAD PUSH32 0x30644E72E131A029B85045B68181585D2833E84879B9709143E1F593F0000001 DUP2 DUP5 MULMOD SWAP3 POP PUSH32 0x30644E72E131A029B85045B68181585D2833E84879B9709143E1F593F0000001 DUP2 DUP5 MULMOD SWAP3 POP DUP3 PUSH1 0x80 DUP7 ADD MSTORE POP POP POP POP POP JUMP JUMPDEST PUSH1 0x40 MLOAD PUSH2 0x220 DUP2 ADD PUSH2 0x140 DUP3 ADD MLOAD DUP2 MSTORE PUSH2 0x160 DUP3 ADD MLOAD PUSH1 0x20 DUP3 ADD MSTORE PUSH2 0x2C0 DUP4 ADD CALLDATALOAD PUSH1 0x40 DUP3 ADD MSTORE PUSH2 0x2E0 DUP4 ADD CALLDATALOAD PUSH1 0x60 DUP3 ADD MSTORE PUSH2 0x220 DUP4 ADD CALLDATALOAD PUSH1 0x80 DUP3 ADD MSTORE PUSH2 0x240 DUP4 ADD CALLDATALOAD PUSH1 0xA0 DUP3 ADD MSTORE PUSH2 0x300 DUP4 ADD CALLDATALOAD PUSH1 0xC0 DUP3 ADD MSTORE PUSH2 0x320 DUP4 ADD CALLDATALOAD PUSH1 0xE0 DUP3 ADD MSTORE PUSH1 0x60 DUP3 ADD MLOAD PUSH2 0x100 DUP3 ADD MSTORE PUSH2 0x1C0 DUP3 ADD MLOAD PUSH2 0x120 DUP3 ADD MSTORE PUSH1 0x20 DUP2 PUSH2 0x140 DUP4 PUSH1 0x2 GAS STATICCALL DUP1 PUSH2 0x1464 JUMPI PUSH2 0x1463 PUSH2 0x3E8 JUMP JUMPDEST JUMPDEST PUSH32 0x30644E72E131A029B85045B68181585D2833E84879B9709143E1F593F0000001 DUP3 MLOAD MOD SWAP1 POP DUP2 PUSH1 0x40 DUP2 ADD SWAP3 POP PUSH2 0x2C0 DUP6 ADD CALLDATALOAD DUP2 MSTORE PUSH2 0x2E0 DUP6 ADD CALLDATALOAD PUSH1 0x20 DUP3 ADD MSTORE PUSH2 0x14B4 DUP4 DUP4 PUSH2 0x300 DUP9 ADD DUP5 PUSH2 0x28A8 JUMP JUMPDEST PUSH2 0x140 DUP5 ADD PUSH2 0x14C9 DUP5 DUP5 PUSH2 0x220 DUP10 ADD DUP5 PUSH2 0x28A8 JUMP JUMPDEST PUSH2 0x120 DUP6 ADD PUSH2 0x14DD DUP5 PUSH2 0x260 DUP10 ADD DUP4 PUSH2 0x28FE JUMP JUMPDEST DUP5 PUSH1 0x40 DUP2 ADD SWAP6 POP PUSH32 0x1FA4BE93B5E7F7E674D5059B63554FAB99638B304ED8310E9FA44C281AC9B03B DUP2 MSTORE PUSH32 0x1A01AE7FAC6228E39D3CB5A5E71FD31160F3241E79A5F48FFB3737E6C389B721 PUSH1 0x20 DUP3 ADD MSTORE DUP2 MLOAD PUSH1 0x40 DUP3 ADD MSTORE PUSH1 0x40 DUP2 PUSH1 0x60 DUP4 PUSH1 0x7 GAS STATICCALL DUP1 PUSH2 0x154C JUMPI PUSH2 0x154B PUSH2 0x389 JUMP JUMPDEST JUMPDEST PUSH1 0x20 DUP3 ADD DUP1 MLOAD PUSH32 0x30644E72E131A029B85045B68181585D97816A916871CA8D3C208C16D87CFD47 SUB DUP2 MSTORE PUSH2 0x1582 DUP9 DUP5 DUP8 DUP9 PUSH2 0x2760 JUMP JUMPDEST DUP8 PUSH1 0x40 DUP10 ADD SWAP9 POP PUSH2 0x159D DUP10 PUSH1 0x60 DUP13 ADD MLOAD PUSH2 0x2C0 DUP15 ADD DUP5 PUSH2 0x281B JUMP JUMPDEST PUSH32 0x30644E72E131A029B85045B68181585D2833E84879B9709143E1F593F0000001 PUSH32 0xC9FABC7845D50D2852E2A0371C6441F145E0DB82E8326961C25F1E3E32B045B PUSH1 0x60 DUP13 ADD MLOAD MULMOD PUSH32 0x30644E72E131A029B85045B68181585D2833E84879B9709143E1F593F0000001 DUP2 DUP11 MULMOD SWAP9 POP PUSH2 0x161B DUP11 DUP11 PUSH2 0x300 DUP16 ADD DUP6 PUSH2 0x28A8 JUMP JUMPDEST PUSH2 0x1627 DUP11 DUP4 DUP10 DUP11 PUSH2 0x2760 JUMP JUMPDEST PUSH1 0x20 DUP9 ADD DUP1 MLOAD PUSH32 0x30644E72E131A029B85045B68181585D97816A916871CA8D3C208C16D87CFD47 SUB DUP2 MSTORE DUP8 MLOAD DUP12 MSTORE PUSH1 0x20 DUP9 ADD MLOAD PUSH1 0x20 DUP13 ADD MSTORE PUSH32 0x198E9393920D483A7260BFB731FB5D25F1AA493335A9E71297E485B7AEF312C2 PUSH1 0x40 DUP13 ADD MSTORE PUSH32 0x1800DEEF121F1E76426A00665E5C4479674322D4F75EDADD46DEBD5CD992F6ED PUSH1 0x60 DUP13 ADD MSTORE PUSH32 0x90689D0585FF075EC9E99AD690C3395BC4B313370B38EF355ACDADCD122975B PUSH1 0x80 DUP13 ADD MSTORE PUSH32 0x12C85EA5DB8C6DEB4AAB71808DCB408FE3D1E7690C43D37B4CE6CC0166FA7DAA PUSH1 0xA0 DUP13 ADD MSTORE DUP9 MLOAD PUSH1 0xC0 DUP13 ADD MSTORE PUSH1 0x20 DUP10 ADD MLOAD PUSH1 0xE0 DUP13 ADD MSTORE PUSH32 0x22F1ACBB03C4508760C2430AF35865E7CDF9F3EB1224504FDCC3708DDB954A48 PUSH2 0x100 DUP13 ADD MSTORE PUSH32 0x2A344FAD01C2ED0ED73142AE1752429EAEA515C6F3F6B941103CC21C2308E1CB PUSH2 0x120 DUP13 ADD MSTORE PUSH32 0x159F15B842BA9C8449AA3268F981010D4C7142E5193473D80B464E964845C3F8 PUSH2 0x140 DUP13 ADD MSTORE PUSH32 0xEFD30AC7B6F8D0D3CCBC2207587C2ACBAD1532DC0293F0D034CF8258CD428B3 PUSH2 0x160 DUP13 ADD MSTORE PUSH2 0x17AD DUP12 PUSH2 0x17BC JUMP JUMPDEST POP POP POP POP POP POP POP POP POP POP POP POP POP JUMP JUMPDEST PUSH1 0x40 MLOAD PUSH1 0x20 PUSH1 0x0 PUSH2 0x180 DUP5 PUSH1 0x8 GAS STATICCALL PUSH1 0x0 MLOAD PUSH2 0x1E0 DUP4 ADD MLOAD DUP1 DUP4 DUP4 AND AND SWAP2 POP DUP2 PUSH2 0x1E0 DUP6 ADD MSTORE POP POP POP POP POP JUMP JUMPDEST PUSH1 0x40 MLOAD PUSH2 0x220 PUSH1 0x40 MLOAD ADD PUSH1 0x20 DUP2 ADD PUSH1 0x40 DUP3 ADD PUSH2 0x1C0 DUP5 ADD MLOAD DUP1 PUSH2 0x140 DUP7 ADD PUSH1 0xA0 DUP8 ADD MLOAD PUSH2 0x140 DUP9 ADD MSTORE PUSH1 0xC0 DUP8 ADD MLOAD PUSH2 0x160 DUP9 ADD MSTORE PUSH2 0x280 DUP9 ADD CALLDATALOAD PUSH2 0x120 DUP9 ADD MSTORE PUSH2 0x1838 DUP7 DUP4 PUSH1 0xE0 DUP11 ADD DUP5 PUSH2 0x2852 JUMP JUMPDEST PUSH2 0x184B DUP3 PUSH2 0x2A0 DUP11 ADD PUSH2 0x120 DUP11 ADD PUSH2 0x28FE JUMP JUMPDEST PUSH32 0x30644E72E131A029B85045B68181585D2833E84879B9709143E1F593F0000001 DUP4 DUP4 MULMOD SWAP2 POP PUSH2 0x1884 DUP7 DUP4 PUSH1 0x0 DUP12 ADD PUSH2 0x140 DUP12 ADD PUSH2 0x28A8 JUMP JUMPDEST PUSH2 0x1897 DUP3 PUSH2 0x180 DUP11 ADD PUSH2 0x120 DUP11 ADD PUSH2 0x28FE JUMP JUMPDEST PUSH32 0x30644E72E131A029B85045B68181585D2833E84879B9709143E1F593F0000001 DUP4 DUP4 MULMOD SWAP2 POP PUSH2 0x18CC DUP7 DUP4 PUSH1 0x40 DUP12 ADD DUP5 PUSH2 0x28A8 JUMP JUMPDEST PUSH2 0x18DF DUP3 PUSH2 0x1A0 DUP11 ADD PUSH2 0x120 DUP11 ADD PUSH2 0x28FE JUMP JUMPDEST PUSH32 0x30644E72E131A029B85045B68181585D2833E84879B9709143E1F593F0000001 DUP4 DUP4 MULMOD SWAP2 POP PUSH2 0x1914 DUP7 DUP4 PUSH1 0x80 DUP12 ADD DUP5 PUSH2 0x28A8 JUMP JUMPDEST PUSH2 0x1927 DUP3 PUSH2 0x1C0 DUP11 ADD PUSH2 0x120 DUP11 ADD PUSH2 0x28FE JUMP JUMPDEST PUSH32 0x30644E72E131A029B85045B68181585D2833E84879B9709143E1F593F0000001 DUP4 DUP4 MULMOD SWAP2 POP PUSH32 0x131775DDCDA187B52CC0B6F9C4A91BBEEB2A7FFF859925ACCB034A207FABDC12 DUP7 MSTORE PUSH32 0x1268873594CDB041E410CED0CD5F51B49018F5B5B6BA6AF6B6D8AAAC7C9747E1 DUP6 MSTORE PUSH2 0x199F DUP5 DUP4 DUP9 DUP5 PUSH2 0x2852 JUMP JUMPDEST PUSH2 0x19B2 DUP3 PUSH2 0x1E0 DUP11 ADD PUSH2 0x120 DUP11 ADD PUSH2 0x28FE JUMP JUMPDEST PUSH32 0x30644E72E131A029B85045B68181585D2833E84879B9709143E1F593F0000001 DUP4 DUP4 MULMOD SWAP2 POP PUSH32 0x8C51E226263B3D4BEFCD86C5A2E2A64EABF06C2FBD24300634815621FCAC2C8 DUP7 MSTORE PUSH32 0x263AA1C4744731BE256888FF42041734626688626DB7AF479CF3BF3E804CEC99 DUP6 MSTORE PUSH2 0x1A2A DUP5 DUP4 DUP9 DUP5 PUSH2 0x2852 JUMP JUMPDEST PUSH2 0x1A3D DUP3 PUSH2 0x200 DUP11 ADD PUSH2 0x120 DUP11 ADD PUSH2 0x28FE JUMP JUMPDEST PUSH2 0x340 DUP9 ADD PUSH32 0x30644E72E131A029B85045B68181585D2833E84879B9709143E1F593F0000001 DUP5 DUP5 MULMOD SWAP3 POP PUSH32 0x2792035B60834BA2677CAFE8FA4B80591EA35C985746D338367F98549D0D488B DUP8 MSTORE PUSH32 0x1BC5376CC9D1D402411CFE8BB700A2B7EA407535365CC6A813B17C403FD94C98 DUP7 MSTORE PUSH2 0x1ABA DUP6 DUP5 DUP10 DUP6 PUSH2 0x2852 JUMP JUMPDEST PUSH2 0x1AC9 DUP4 DUP3 PUSH2 0x120 DUP12 ADD PUSH2 0x28FE JUMP JUMPDEST PUSH1 0x20 DUP2 ADD SWAP1 POP POP POP POP POP POP POP POP POP POP JUMP JUMPDEST PUSH1 0x40 MLOAD PUSH2 0x220 PUSH1 0x40 MLOAD ADD PUSH5 0x67616D6D61 DUP2 MSTORE PUSH1 0x60 DUP3 ADD MLOAD PUSH1 0x20 DUP3 ADD MSTORE PUSH1 0xA0 DUP3 ADD MLOAD PUSH1 0x40 DUP3 ADD MSTORE PUSH1 0xC0 DUP3 ADD MLOAD PUSH1 0x60 DUP3 ADD MSTORE PUSH1 0xE0 DUP3 ADD MLOAD PUSH1 0x80 DUP3 ADD MSTORE PUSH2 0x100 DUP3 ADD MLOAD PUSH1 0xA0 DUP3 ADD MSTORE PUSH1 0xC0 PUSH1 0x0 DUP5 ADD PUSH1 0xC0 DUP4 ADD CALLDATACOPY PUSH32 0x131775DDCDA187B52CC0B6F9C4A91BBEEB2A7FFF859925ACCB034A207FABDC12 PUSH2 0x180 DUP3 ADD MSTORE PUSH32 0x1268873594CDB041E410CED0CD5F51B49018F5B5B6BA6AF6B6D8AAAC7C9747E1 PUSH2 0x1A0 DUP3 ADD MSTORE PUSH32 0x8C51E226263B3D4BEFCD86C5A2E2A64EABF06C2FBD24300634815621FCAC2C8 PUSH2 0x1C0 DUP3 ADD MSTORE PUSH32 0x263AA1C4744731BE256888FF42041734626688626DB7AF479CF3BF3E804CEC99 PUSH2 0x1E0 DUP3 ADD MSTORE PUSH2 0x200 PUSH32 0x2792035B60834BA2677CAFE8FA4B80591EA35C985746D338367F98549D0D488B DUP2 DUP4 ADD MSTORE PUSH32 0x1BC5376CC9D1D402411CFE8BB700A2B7EA407535365CC6A813B17C403FD94C98 PUSH1 0x20 DUP3 ADD DUP4 ADD MSTORE PUSH1 0x40 DUP2 ADD SWAP1 POP PUSH2 0x280 DUP5 ADD CALLDATALOAD DUP2 DUP4 ADD MSTORE PUSH2 0x2A0 DUP5 ADD CALLDATALOAD PUSH1 0x20 DUP3 ADD DUP4 ADD MSTORE PUSH2 0x180 DUP5 ADD CALLDATALOAD PUSH1 0x40 DUP3 ADD DUP4 ADD MSTORE PUSH2 0x1A0 DUP5 ADD CALLDATALOAD PUSH1 0x60 DUP3 ADD DUP4 ADD MSTORE PUSH2 0x1C0 DUP5 ADD CALLDATALOAD PUSH1 0x80 DUP3 ADD DUP4 ADD MSTORE PUSH2 0x1E0 DUP5 ADD CALLDATALOAD PUSH1 0xA0 DUP3 ADD DUP4 ADD MSTORE PUSH2 0x200 DUP5 ADD CALLDATALOAD PUSH1 0xC0 DUP3 ADD DUP4 ADD MSTORE PUSH1 0xE0 DUP2 ADD DUP3 ADD PUSH2 0x340 DUP6 ADD PUSH1 0x0 JUMPDEST PUSH1 0x1 DUP2 LT ISZERO PUSH2 0x1CA6 JUMPI DUP2 CALLDATALOAD DUP4 MSTORE PUSH1 0x20 DUP3 ADD SWAP2 POP PUSH1 0x20 DUP4 ADD SWAP3 POP PUSH1 0x1 DUP2 ADD SWAP1 POP PUSH2 0x1C82 JUMP JUMPDEST POP PUSH2 0x260 DUP7 ADD CALLDATALOAD DUP3 MSTORE PUSH1 0x1B PUSH1 0x3 PUSH1 0x1 MUL PUSH1 0x17 ADD PUSH1 0x20 DUP2 MUL PUSH1 0x5 ADD SWAP1 POP PUSH1 0x20 PUSH2 0x1C0 DUP9 ADD DUP3 DUP5 DUP10 ADD PUSH1 0x2 GAS STATICCALL DUP1 PUSH2 0x1CDF JUMPI PUSH2 0x1CDE PUSH2 0x389 JUMP JUMPDEST JUMPDEST PUSH32 0x30644E72E131A029B85045B68181585D2833E84879B9709143E1F593F0000001 PUSH2 0x1C0 DUP10 ADD MLOAD MOD PUSH2 0x1C0 DUP10 ADD MSTORE POP POP POP POP POP POP POP POP POP JUMP JUMPDEST PUSH1 0x40 MLOAD PUSH2 0x220 PUSH1 0x40 MLOAD ADD PUSH32 0x2001A8E61C4029B6E68A1029C5E43C6265EF43E31FB036598EC4ACBC823447BB DUP2 MSTORE PUSH32 0xBECE7C9EC39B2A943717DE87235810E71D3CAAD917290158B8DC88F6B2D0404 PUSH1 0x20 DUP3 ADD MSTORE PUSH2 0x1D82 PUSH1 0x40 DUP3 ADD PUSH2 0x180 DUP6 ADD CALLDATALOAD DUP4 PUSH1 0xE0 DUP7 ADD PUSH2 0x27E4 JUMP JUMPDEST PUSH32 0x262844F03C48BB4649DD41E0E79FBA5439C7F4977BE33D0552F833B4EC076D7E DUP2 MSTORE PUSH32 0x2A3E7CBC822D6C632A5A6E57C460764E8A2927F7FCB11A6F83D79CB8F23D5CC0 PUSH1 0x20 DUP3 ADD MSTORE PUSH2 0x1DE2 PUSH1 0x40 DUP3 ADD PUSH2 0x1A0 DUP6 ADD CALLDATALOAD DUP4 PUSH1 0xE0 DUP7 ADD PUSH2 0x2852 JUMP JUMPDEST PUSH32 0x30644E72E131A029B85045B68181585D2833E84879B9709143E1F593F0000001 PUSH2 0x1A0 DUP5 ADD CALLDATALOAD PUSH2 0x180 DUP6 ADD CALLDATALOAD MULMOD PUSH32 0x10A542641B3711307F371C3AEDAFC127045D5C71BDD208905BD3AAB5EE737DB3 DUP3 MSTORE PUSH32 0x9C0CB1104E1AD7234151A7620D16104832EF78C6057A15DA7B4AE43DAF0D217 PUSH1 0x20 DUP4 ADD MSTORE PUSH2 0x1E6B PUSH1 0x40 DUP4 ADD DUP3 DUP5 PUSH1 0xE0 DUP8 ADD PUSH2 0x2852 JUMP JUMPDEST PUSH32 0x24FA29D61C341A39DBBFECA49AEBEC47AA19904E0F17E0C6368310ECA1593EEA DUP3 MSTORE PUSH32 0x14304C61499C73ECAA370DEE1EE0960D1D7FC0CEC3DBD69815B978D94E8FBD8D PUSH1 0x20 DUP4 ADD MSTORE PUSH2 0x1ECB PUSH1 0x40 DUP4 ADD PUSH2 0x1C0 DUP7 ADD CALLDATALOAD DUP5 PUSH1 0xE0 DUP8 ADD PUSH2 0x2852 JUMP JUMPDEST PUSH32 0x2293D4355CFE017F557EC6F1B454D2A9B4BD96FC94278C0ED04BE793D20F381 DUP3 MSTORE PUSH32 0x303A6711DE550CEA639BC054BF85F573AF043030D7A3BB5DA0CA4A7E00841846 PUSH1 0x20 DUP4 ADD MSTORE PUSH2 0x1F29 PUSH1 0x40 DUP4 ADD DUP4 PUSH1 0xE0 DUP7 ADD PUSH1 0xE0 DUP8 ADD PUSH2 0x2760 JUMP JUMPDEST PUSH2 0x340 DUP5 ADD PUSH2 0x360 DUP6 ADD PUSH1 0x0 JUMPDEST PUSH1 0x1 DUP2 LT ISZERO PUSH2 0x1F77 JUMPI DUP2 CALLDATALOAD DUP6 MSTORE PUSH1 0x20 DUP3 ADD CALLDATALOAD PUSH1 0x20 DUP7 ADD MSTORE PUSH2 0x1F60 PUSH1 0x40 DUP7 ADD DUP5 CALLDATALOAD DUP8 PUSH1 0xE0 DUP11 ADD PUSH2 0x2852 JUMP JUMPDEST PUSH1 0x20 DUP4 ADD SWAP3 POP PUSH1 0x40 DUP3 ADD SWAP2 POP PUSH1 0x1 DUP2 ADD SWAP1 POP PUSH2 0x1F36 JUMP JUMPDEST POP PUSH32 0x25C0C05F4B72B925D77F400E4CCE59E0145C99C34BC3136AEEEDC87B049DD348 DUP5 MSTORE PUSH32 0x1B8AC7F02A5384133C46E44C552C6AEE0FEEA68602E4D358C1C7EB8E9B31BB5D PUSH1 0x20 DUP6 ADD MSTORE PUSH2 0x1FD3 PUSH1 0x40 DUP6 ADD DUP9 DUP7 PUSH1 0xE0 DUP10 ADD PUSH2 0x2852 JUMP JUMPDEST PUSH2 0x220 DUP7 ADD CALLDATALOAD DUP5 MSTORE PUSH2 0x240 DUP7 ADD CALLDATALOAD PUSH1 0x20 DUP6 ADD MSTORE PUSH2 0x1FF8 PUSH1 0x40 DUP6 ADD DUP10 DUP7 PUSH1 0xE0 DUP10 ADD PUSH2 0x2852 JUMP JUMPDEST POP POP POP POP POP POP POP POP JUMP JUMPDEST PUSH1 0x40 MLOAD PUSH1 0x20 DUP2 ADD MLOAD PUSH1 0x40 DUP3 ADD MLOAD PUSH1 0x60 DUP4 ADD MLOAD PUSH1 0x0 DUP5 ADD MLOAD PUSH32 0x30644E72E131A029B85045B68181585D2833E84879B9709143E1F593F0000001 DUP5 PUSH2 0x260 DUP9 ADD CALLDATALOAD MULMOD PUSH32 0x30644E72E131A029B85045B68181585D2833E84879B9709143E1F593F0000001 PUSH2 0x1E0 DUP9 ADD CALLDATALOAD DUP7 MULMOD PUSH32 0x30644E72E131A029B85045B68181585D2833E84879B9709143E1F593F0000001 PUSH2 0x180 DUP10 ADD CALLDATALOAD DUP3 ADDMOD SWAP1 POP PUSH32 0x30644E72E131A029B85045B68181585D2833E84879B9709143E1F593F0000001 DUP6 DUP3 ADDMOD SWAP1 POP PUSH32 0x30644E72E131A029B85045B68181585D2833E84879B9709143E1F593F0000001 PUSH2 0x200 DUP10 ADD CALLDATALOAD DUP8 MULMOD PUSH32 0x30644E72E131A029B85045B68181585D2833E84879B9709143E1F593F0000001 PUSH2 0x1A0 DUP11 ADD CALLDATALOAD DUP3 ADDMOD SWAP1 POP PUSH32 0x30644E72E131A029B85045B68181585D2833E84879B9709143E1F593F0000001 DUP7 DUP3 ADDMOD SWAP1 POP PUSH32 0x30644E72E131A029B85045B68181585D2833E84879B9709143E1F593F0000001 DUP3 DUP5 MULMOD PUSH32 0x30644E72E131A029B85045B68181585D2833E84879B9709143E1F593F0000001 DUP3 DUP3 MULMOD SWAP1 POP PUSH32 0x30644E72E131A029B85045B68181585D2833E84879B9709143E1F593F0000001 DUP6 DUP3 MULMOD SWAP1 POP PUSH32 0x30644E72E131A029B85045B68181585D2833E84879B9709143E1F593F0000001 PUSH1 0x5 DUP1 MULMOD PUSH32 0x30644E72E131A029B85045B68181585D2833E84879B9709143E1F593F0000001 DUP8 DUP11 MULMOD PUSH32 0x30644E72E131A029B85045B68181585D2833E84879B9709143E1F593F0000001 PUSH2 0x180 DUP14 ADD CALLDATALOAD DUP3 ADDMOD SWAP6 POP PUSH32 0x30644E72E131A029B85045B68181585D2833E84879B9709143E1F593F0000001 DUP10 DUP8 ADDMOD SWAP6 POP PUSH32 0x30644E72E131A029B85045B68181585D2833E84879B9709143E1F593F0000001 PUSH1 0x5 DUP3 MULMOD SWAP5 POP PUSH32 0x30644E72E131A029B85045B68181585D2833E84879B9709143E1F593F0000001 PUSH2 0x1A0 DUP14 ADD CALLDATALOAD DUP7 ADDMOD SWAP5 POP PUSH32 0x30644E72E131A029B85045B68181585D2833E84879B9709143E1F593F0000001 DUP10 DUP7 ADDMOD SWAP5 POP PUSH32 0x30644E72E131A029B85045B68181585D2833E84879B9709143E1F593F0000001 DUP3 DUP3 MULMOD SWAP4 POP PUSH32 0x30644E72E131A029B85045B68181585D2833E84879B9709143E1F593F0000001 PUSH2 0x1C0 DUP14 ADD CALLDATALOAD DUP6 ADDMOD SWAP4 POP PUSH32 0x30644E72E131A029B85045B68181585D2833E84879B9709143E1F593F0000001 DUP10 DUP6 ADDMOD SWAP4 POP PUSH32 0x30644E72E131A029B85045B68181585D2833E84879B9709143E1F593F0000001 DUP6 DUP8 MULMOD PUSH32 0x30644E72E131A029B85045B68181585D2833E84879B9709143E1F593F0000001 DUP6 DUP3 MULMOD SWAP1 POP DUP1 PUSH32 0x30644E72E131A029B85045B68181585D2833E84879B9709143E1F593F0000001 SUB SWAP1 POP PUSH32 0x30644E72E131A029B85045B68181585D2833E84879B9709143E1F593F0000001 DUP9 DUP3 MULMOD SWAP1 POP PUSH32 0x30644E72E131A029B85045B68181585D2833E84879B9709143E1F593F0000001 PUSH1 0x80 DUP14 ADD MLOAD DUP3 ADDMOD SWAP1 POP PUSH2 0x23F9 DUP2 DUP6 DUP16 PUSH2 0x1D18 JUMP JUMPDEST POP POP POP POP POP POP POP POP POP POP POP POP POP JUMP JUMPDEST PUSH1 0x40 MLOAD PUSH1 0x2 PUSH4 0x1000000 ADD PUSH2 0x220 PUSH1 0x40 MLOAD ADD PUSH2 0x2429 DUP2 DUP4 PUSH1 0x60 DUP7 ADD MLOAD PUSH2 0x2950 JUMP JUMPDEST PUSH2 0x243C DUP3 DUP3 PUSH2 0x140 DUP9 ADD PUSH1 0xA0 DUP9 ADD PUSH2 0x281B JUMP JUMPDEST PUSH2 0x2452 DUP3 PUSH2 0x100 DUP8 ADD PUSH1 0xA0 DUP8 ADD PUSH1 0xA0 DUP9 ADD PUSH2 0x27A2 JUMP JUMPDEST PUSH2 0x2464 DUP3 DUP3 PUSH1 0xA0 DUP8 ADD PUSH1 0xA0 DUP9 ADD PUSH2 0x27E4 JUMP JUMPDEST PUSH2 0x2479 DUP3 PUSH1 0xC0 DUP8 ADD PUSH1 0xA0 DUP8 ADD PUSH1 0xA0 DUP9 ADD PUSH2 0x27A2 JUMP JUMPDEST POP POP POP POP POP JUMP JUMPDEST PUSH1 0x40 MLOAD PUSH2 0x220 PUSH1 0x40 MLOAD ADD PUSH32 0x30644E72E131A029B85045B68181585D2833E84879B9709143E1F593F0000001 PUSH1 0x20 DUP4 ADD MLOAD PUSH2 0x1E0 DUP6 ADD CALLDATALOAD MULMOD DUP2 MSTORE PUSH32 0x30644E72E131A029B85045B68181585D2833E84879B9709143E1F593F0000001 PUSH1 0x40 DUP4 ADD MLOAD DUP3 MLOAD ADDMOD DUP2 MSTORE PUSH32 0x30644E72E131A029B85045B68181585D2833E84879B9709143E1F593F0000001 PUSH2 0x180 DUP5 ADD CALLDATALOAD DUP3 MLOAD ADDMOD DUP2 MSTORE PUSH1 0x20 DUP2 ADD PUSH32 0x30644E72E131A029B85045B68181585D2833E84879B9709143E1F593F0000001 PUSH1 0x20 DUP5 ADD MLOAD PUSH2 0x200 DUP7 ADD CALLDATALOAD MULMOD DUP2 MSTORE PUSH32 0x30644E72E131A029B85045B68181585D2833E84879B9709143E1F593F0000001 PUSH1 0x40 DUP5 ADD MLOAD DUP3 MLOAD ADDMOD DUP2 MSTORE PUSH32 0x30644E72E131A029B85045B68181585D2833E84879B9709143E1F593F0000001 PUSH2 0x1A0 DUP6 ADD CALLDATALOAD DUP3 MLOAD ADDMOD DUP2 MSTORE PUSH1 0x40 DUP3 ADD PUSH32 0x30644E72E131A029B85045B68181585D2833E84879B9709143E1F593F0000001 PUSH1 0x40 DUP6 ADD MLOAD PUSH2 0x1C0 DUP8 ADD CALLDATALOAD ADDMOD DUP2 MSTORE PUSH32 0x30644E72E131A029B85045B68181585D2833E84879B9709143E1F593F0000001 DUP3 MLOAD DUP5 MLOAD MULMOD DUP4 MSTORE PUSH32 0x30644E72E131A029B85045B68181585D2833E84879B9709143E1F593F0000001 DUP2 MLOAD DUP5 MLOAD MULMOD DUP4 MSTORE PUSH32 0x30644E72E131A029B85045B68181585D2833E84879B9709143E1F593F0000001 PUSH1 0x0 DUP6 ADD MLOAD DUP5 MLOAD MULMOD DUP4 MSTORE PUSH32 0x30644E72E131A029B85045B68181585D2833E84879B9709143E1F593F0000001 PUSH2 0x260 DUP7 ADD CALLDATALOAD DUP5 MLOAD MULMOD DUP4 MSTORE PUSH1 0x60 DUP4 ADD PUSH32 0x30644E72E131A029B85045B68181585D2833E84879B9709143E1F593F0000001 PUSH2 0x180 DUP7 ADD MLOAD PUSH2 0x2A0 DUP9 ADD CALLDATALOAD ADDMOD DUP2 MSTORE PUSH32 0x30644E72E131A029B85045B68181585D2833E84879B9709143E1F593F0000001 DUP5 MLOAD DUP3 MLOAD ADDMOD DUP2 MSTORE PUSH32 0x30644E72E131A029B85045B68181585D2833E84879B9709143E1F593F0000001 PUSH1 0x80 DUP7 ADD MLOAD PUSH32 0x30644E72E131A029B85045B68181585D2833E84879B9709143E1F593F0000001 SUB DUP3 MLOAD ADDMOD DUP2 MSTORE PUSH32 0x30644E72E131A029B85045B68181585D2833E84879B9709143E1F593F0000001 PUSH2 0x1A0 DUP7 ADD MLOAD PUSH2 0x280 DUP9 ADD CALLDATALOAD MULMOD DUP4 MSTORE DUP3 MLOAD DUP2 MLOAD EQ PUSH2 0x1E0 DUP7 ADD MSTORE POP POP POP POP POP POP JUMP JUMPDEST PUSH1 0x40 MLOAD DUP3 MLOAD DUP6 MSTORE PUSH1 0x20 DUP4 ADD MLOAD PUSH1 0x20 DUP7 ADD MSTORE DUP4 MLOAD PUSH1 0x40 DUP7 ADD MSTORE PUSH1 0x20 DUP5 ADD MLOAD PUSH1 0x60 DUP7 ADD MSTORE PUSH1 0x40 DUP3 PUSH1 0x80 DUP8 PUSH1 0x6 GAS STATICCALL DUP1 PUSH2 0x279A JUMPI PUSH2 0x2799 PUSH2 0x20D JUMP JUMPDEST JUMPDEST POP POP POP POP POP POP JUMP JUMPDEST PUSH1 0x40 MLOAD DUP3 MLOAD DUP6 MSTORE PUSH1 0x20 DUP4 ADD MLOAD PUSH1 0x20 DUP7 ADD MSTORE DUP4 CALLDATALOAD PUSH1 0x40 DUP7 ADD MSTORE PUSH1 0x20 DUP5 ADD CALLDATALOAD PUSH1 0x60 DUP7 ADD MSTORE PUSH1 0x40 DUP3 PUSH1 0x80 DUP8 PUSH1 0x6 GAS STATICCALL DUP1 PUSH2 0x27DC JUMPI PUSH2 0x27DB PUSH2 0x20D JUMP JUMPDEST JUMPDEST POP POP POP POP POP POP JUMP JUMPDEST PUSH1 0x40 MLOAD DUP3 MLOAD DUP6 MSTORE PUSH1 0x20 DUP4 ADD MLOAD PUSH1 0x20 DUP7 ADD MSTORE DUP4 PUSH1 0x40 DUP7 ADD MSTORE PUSH1 0x40 DUP3 PUSH1 0x60 DUP8 PUSH1 0x7 GAS STATICCALL DUP1 PUSH2 0x2813 JUMPI PUSH2 0x2812 PUSH2 0x20D JUMP JUMPDEST JUMPDEST POP POP POP POP POP POP JUMP JUMPDEST PUSH1 0x40 MLOAD DUP3 CALLDATALOAD DUP6 MSTORE PUSH1 0x20 DUP4 ADD CALLDATALOAD PUSH1 0x20 DUP7 ADD MSTORE DUP4 PUSH1 0x40 DUP7 ADD MSTORE PUSH1 0x40 DUP3 PUSH1 0x60 DUP8 PUSH1 0x7 GAS STATICCALL DUP1 PUSH2 0x284A JUMPI PUSH2 0x2849 PUSH2 0x20D JUMP JUMPDEST JUMPDEST POP POP POP POP POP POP JUMP JUMPDEST PUSH1 0x40 MLOAD DUP3 MLOAD DUP6 MSTORE PUSH1 0x20 DUP4 ADD MLOAD PUSH1 0x20 DUP7 ADD MSTORE DUP4 PUSH1 0x40 DUP7 ADD MSTORE PUSH1 0x40 DUP6 PUSH1 0x60 DUP8 PUSH1 0x7 GAS STATICCALL DUP3 MLOAD PUSH1 0x40 DUP8 ADD MSTORE PUSH1 0x20 DUP4 ADD MLOAD PUSH1 0x60 DUP8 ADD MSTORE PUSH1 0x40 DUP4 PUSH1 0x80 DUP9 PUSH1 0x6 GAS STATICCALL DUP2 AND SWAP1 POP DUP1 PUSH2 0x28A0 JUMPI PUSH2 0x289F PUSH2 0x20D JUMP JUMPDEST JUMPDEST POP POP POP POP POP POP JUMP JUMPDEST PUSH1 0x40 MLOAD DUP3 CALLDATALOAD DUP6 MSTORE PUSH1 0x20 DUP4 ADD CALLDATALOAD PUSH1 0x20 DUP7 ADD MSTORE DUP4 PUSH1 0x40 DUP7 ADD MSTORE PUSH1 0x40 DUP6 PUSH1 0x60 DUP8 PUSH1 0x7 GAS STATICCALL DUP3 MLOAD PUSH1 0x40 DUP8 ADD MSTORE PUSH1 0x20 DUP4 ADD MLOAD PUSH1 0x60 DUP8 ADD MSTORE PUSH1 0x40 DUP4 PUSH1 0x80 DUP9 PUSH1 0x6 GAS STATICCALL DUP2 AND SWAP1 POP DUP1 PUSH2 0x28F6 JUMPI PUSH2 0x28F5 PUSH2 0x20D JUMP JUMPDEST JUMPDEST POP POP POP POP POP POP JUMP JUMPDEST PUSH32 0x30644E72E131A029B85045B68181585D2833E84879B9709143E1F593F0000001 DUP4 DUP4 CALLDATALOAD MULMOD PUSH32 0x30644E72E131A029B85045B68181585D2833E84879B9709143E1F593F0000001 DUP2 DUP4 MLOAD ADDMOD DUP3 MSTORE POP POP POP POP JUMP JUMPDEST PUSH1 0x0 PUSH1 0x20 DUP5 MSTORE PUSH1 0x20 DUP1 DUP6 ADD MSTORE PUSH1 0x20 PUSH1 0x40 DUP6 ADD MSTORE DUP2 PUSH1 0x60 DUP6 ADD MSTORE DUP3 PUSH1 0x80 DUP6 ADD MSTORE PUSH32 0x30644E72E131A029B85045B68181585D2833E84879B9709143E1F593F0000001 PUSH1 0xA0 DUP6 ADD MSTORE PUSH1 0x20 DUP5 PUSH1 0xC0 DUP7 PUSH1 0x5 GAS STATICCALL PUSH1 0x0 DUP2 SUB PUSH2 0x29B0 JUMPI PUSH2 0x29AF PUSH2 0x389 JUMP JUMPDEST JUMPDEST DUP5 MLOAD SWAP2 POP POP SWAP4 SWAP3 POP POP POP JUMP JUMPDEST POP POP POP POP POP POP POP SWAP5 SWAP4 POP POP POP POP JUMP JUMPDEST PUSH1 0x0 DUP1 REVERT JUMPDEST PUSH1 0x0 DUP1 REVERT JUMPDEST PUSH1 0x0 DUP1 REVERT JUMPDEST PUSH1 0x0 DUP1 REVERT JUMPDEST PUSH1 0x0 DUP1 REVERT JUMPDEST PUSH1 0x0 DUP1 DUP4 PUSH1 0x1F DUP5 ADD SLT PUSH2 0x29FA JUMPI PUSH2 0x29F9 PUSH2 0x29D5 JUMP JUMPDEST JUMPDEST DUP3 CALLDATALOAD SWAP1 POP PUSH8 0xFFFFFFFFFFFFFFFF DUP2 GT ISZERO PUSH2 0x2A17 JUMPI PUSH2 0x2A16 PUSH2 0x29DA JUMP JUMPDEST JUMPDEST PUSH1 0x20 DUP4 ADD SWAP2 POP DUP4 PUSH1 0x1 DUP3 MUL DUP4 ADD GT ISZERO PUSH2 0x2A33 JUMPI PUSH2 0x2A32 PUSH2 0x29DF JUMP JUMPDEST JUMPDEST SWAP3 POP SWAP3 SWAP1 POP JUMP JUMPDEST PUSH1 0x0 DUP1 DUP4 PUSH1 0x1F DUP5 ADD SLT PUSH2 0x2A50 JUMPI PUSH2 0x2A4F PUSH2 0x29D5 JUMP JUMPDEST JUMPDEST DUP3 CALLDATALOAD SWAP1 POP PUSH8 0xFFFFFFFFFFFFFFFF DUP2 GT ISZERO PUSH2 0x2A6D JUMPI PUSH2 0x2A6C PUSH2 0x29DA JUMP JUMPDEST JUMPDEST PUSH1 0x20 DUP4 ADD SWAP2 POP DUP4 PUSH1 0x20 DUP3 MUL DUP4 ADD GT ISZERO PUSH2 0x2A89 JUMPI PUSH2 0x2A88 PUSH2 0x29DF JUMP JUMPDEST JUMPDEST SWAP3 POP SWAP3 SWAP1 POP JUMP JUMPDEST PUSH1 0x0 DUP1 PUSH1 0x0 DUP1 PUSH1 0x40 DUP6 DUP8 SUB SLT ISZERO PUSH2 0x2AAA JUMPI PUSH2 0x2AA9 PUSH2 0x29CB JUMP JUMPDEST JUMPDEST PUSH1 0x0 DUP6 ADD CALLDATALOAD PUSH8 0xFFFFFFFFFFFFFFFF DUP2 GT ISZERO PUSH2 0x2AC8 JUMPI PUSH2 0x2AC7 PUSH2 0x29D0 JUMP JUMPDEST JUMPDEST PUSH2 0x2AD4 DUP8 DUP3 DUP9 ADD PUSH2 0x29E4 JUMP JUMPDEST SWAP5 POP SWAP5 POP POP PUSH1 0x20 DUP6 ADD CALLDATALOAD PUSH8 0xFFFFFFFFFFFFFFFF DUP2 GT ISZERO PUSH2 0x2AF7 JUMPI PUSH2 0x2AF6 PUSH2 0x29D0 JUMP JUMPDEST JUMPDEST PUSH2 0x2B03 DUP8 DUP3 DUP9 ADD PUSH2 0x2A3A JUMP JUMPDEST SWAP3 POP SWAP3 POP POP SWAP3 SWAP6 SWAP2 SWAP5 POP SWAP3 POP JUMP JUMPDEST PUSH1 0x0 DUP2 ISZERO ISZERO SWAP1 POP SWAP2 SWAP1 POP JUMP JUMPDEST PUSH2 0x2B26 DUP2 PUSH2 0x2B11 JUMP JUMPDEST DUP3 MSTORE POP POP JUMP JUMPDEST PUSH1 0x0 PUSH1 0x20 DUP3 ADD SWAP1 POP PUSH2 0x2B41 PUSH1 0x0 DUP4 ADD DUP5 PUSH2 0x2B1D JUMP JUMPDEST SWAP3 SWAP2 POP POP JUMP INVALID LOG2 PUSH5 0x6970667358 0x22 SLT KECCAK256 0xA5 STOP ADDMOD SWAP14 NUMBER 0xC1 PUSH1 0xB3 0xB2 0xA7 PUSH5 0xF280E9378D SWAP11 0xBE RETURNDATASIZE 0xEE JUMP SWAP14 0xCB 0x27 0x2B 0x2A 0xDC PUSH13 0x84F0612064736F6C6343000813 STOP CALLER "},"methodIdentifiers":{"Verify(bytes,uint256[])":"7e4f7a8a"}}}}}