{
  "_format": "hh-sol-artifact-1",
  "contractName": "PlonkVerifier",
  "sourceName": "contracts/PlonkVerifier.sol",
  "abi": [
    {
      "inputs": [
        {
          "internalType": "bytes",
          "name": "proof",
          "type": "bytes"
        },
        {
          "internalType": "uint256[]",
          "name": "public_inputs",
          "type": "uint256[]"
        }
      ],
      "name": "Verify",
      "outputs": [
        {
          "internalType": "bool",
          "name": "success",
          "type": "bool"
        }
      ],
      "stateMutability": "view",
      "type": "function"
    }
  ],
  "bytecode": "0x608060405234801561001057600080fd5b50612b7b806100206000396000f3fe608060405234801561001057600080fd5b506004361061002b5760003560e01c80637e4f7a8a14610030575b600080fd5b61004a60048036038101906100459190612a8e565b610060565b6040516100579190612b2a565b60405180910390f35b6000604051610220810161007384610447565b61007d858561045b565b610086866104b5565b61008f876104d2565b600061009c86868a6106aa565b90506100a7816109f1565b90506100b38189610a59565b90506100bf8189610af0565b60608301517f30644e72e131a029b85045b68181585d2833e84879b9709143e1f593f000000160017f30644e72e131a029b85045b68181585d2833e84879b9709143e1f593f0000001036101188563010000008561294e565b08806101a086015261012b84888a610b5e565b61013685898d610ec5565b7f30644e72e131a029b85045b68181585d2833e84879b9709143e1f593f000000182820891508161018088015261016b611281565b6101748c61247e565b61017d8c612406565b6101868c612000565b61018f8c611ad9565b6101988c6117e8565b6101a18c6113d6565b6101e087015197506129ba565b6040517f08c379a000000000000000000000000000000000000000000000000000000000815260206004820152601d60248201527f77726f6e67206e756d626572206f66207075626c696320696e707574730000006044820152606481fd5b6040517f08c379a000000000000000000000000000000000000000000000000000000000815260206004820152601260248201527f6572726f72206563206f7065726174696f6e00000000000000000000000000006044820152606481fd5b6040517f08c379a000000000000000000000000000000000000000000000000000000000815260206004820152601860248201527f696e707574732061726520626967676572207468616e207200000000000000006044820152606481fd5b6040517f08c379a000000000000000000000000000000000000000000000000000000000815260206004820152601060248201527f77726f6e672070726f6f662073697a65000000000000000000000000000000006044820152606481fd5b6040517f08c379a000000000000000000000000000000000000000000000000000000000815260206004820152601660248201527f6f70656e696e677320626967676572207468616e2072000000000000000000006044820152606481fd5b6040517f08c379a000000000000000000000000000000000000000000000000000000000815260206004820152600c60248201527f6572726f722076657269667900000000000000000000000000000000000000006044820152606481fd5b6040517f08c379a000000000000000000000000000000000000000000000000000000000815260206004820152601460248201527f6572726f722072616e646f6d2067656e206b7a670000000000000000000000006044820152606481fd5b60408114610458576104576101ae565b5b50565b600160005b828110156104a1577f30644e72e131a029b85045b68181585d2833e84879b9709143e1f593f000000184351082169150602084019350600181019050610460565b50806104b0576104af61026c565b5b505050565b6060600102610340018082146104ce576104cd6102cb565b5b5050565b60016102a082017f30644e72e131a029b85045b68181585d2833e84879b9709143e1f593f000000181351082169150610280830190507f30644e72e131a029b85045b68181585d2833e84879b9709143e1f593f000000181351082169150610180830190507f30644e72e131a029b85045b68181585d2833e84879b9709143e1f593f0000001813510821691506101a0830190507f30644e72e131a029b85045b68181585d2833e84879b9709143e1f593f0000001813510821691506101c0830190507f30644e72e131a029b85045b68181585d2833e84879b9709143e1f593f0000001813510821691506101e0830190507f30644e72e131a029b85045b68181585d2833e84879b9709143e1f593f000000181351082169150610200830190507f30644e72e131a029b85045b68181585d2833e84879b9709143e1f593f000000181351082169150610260830190507f30644e72e131a029b85045b68181585d2833e84879b9709143e1f593f0000001813510821691506103408301905060005b6001811015610696577f30644e72e131a029b85045b68181585d2833e84879b9709143e1f593f000000182351083169250602082019150600181019050610654565b50816106a5576106a461032a565b5b505050565b600060405161022081016467616d6d6181527f131775ddcda187b52cc0b6f9c4a91bbeeb2a7fff859925accb034a207fabdc1260208201527f1268873594cdb041e410ced0cd5f51b49018f5b5b6ba6af6b6d8aaac7c9747e160408201527f08c51e226263b3d4befcd86c5a2e2a64eabf06c2fbd24300634815621fcac2c860608201527f263aa1c4744731be256888ff42041734626688626db7af479cf3bf3e804cec9960808201527f25c0c05f4b72b925d77f400e4cce59e0145c99c34bc3136aeeedc87b049dd34860a08201527f1b8ac7f02a5384133c46e44c552c6aee0feea68602e4d358c1c7eb8e9b31bb5d60c08201527eb68517928e8d088968da939031cc56afb106b14a0d8c9a00e95558d599226b60e08201527f0d3d66dce587ee462b94ef15e4bd4733530808817ecac5dbcbe647660359266c6101008201527f05b161407a009dc1100f00a35e84ebdbcb645db6265e87f9aa9366d8eeb51ad06101208201527f1af1ee3fb4f957e217f1f908671559f98c7c2cc949ffac98a356876ace2c8d976101408201527f10a542641b3711307f371c3aedafc127045d5c71bdd208905bd3aab5ee737db36101608201527f09c0cb1104e1ad7234151a7620d16104832ef78c6057a15da7b4ae43daf0d2176101808201527f24fa29d61c341a39dbbfeca49aebec47aa19904e0f17e0c6368310eca1593eea6101a08201527f14304c61499c73ecaa370dee1ee0960d1d7fc0cec3dbd69815b978d94e8fbd8d6101c08201527f01600d40251062ba0241c75e3f3d8e4dc380dacbad9a2a6099b396f57c0a00536101e08201527f17f77c8a5ae67f238d819e8f0c7ff094f265b92bf5e5c33bd95bdd97a679e0ad6102008201527f2792035b60834ba2677cafe8fa4b80591ea35c985746d338367f98549d0d488b6102208201527f1bc5376cc9d1d402411cfe8bb700a2b7ea407535365cc6a813b17c403fd94c9861024082015261026081016020860280888337808201915060c0808784378083019250816102c50160406001028101905060208582601b880160025afa806109b7576109b6610389565b5b855197507f30644e72e131a029b85045b68181585d2833e84879b9709143e1f593f000000188066040880152505050505050509392505050565b600060405161022060405101636265746181528360208201526020816024601c840160025afa80610a2557610a24610389565b5b815193507f30644e72e131a029b85045b68181585d2833e84879b9709143e1f593f000000184066020840152505050919050565b600060405161022060405101606564616c70686182526020820186815260208101905061036086016001604002808284378083019250808401935060406102208901843760208585601b880160025afa80610ab757610ab6610389565b5b855197507f30644e72e131a029b85045b68181585d2833e84879b9709143e1f593f0000001880660008801525050505050505092915050565b60405161022060405101637a657461815283602082015260c0808401604083013760208160e4601c840160025afa80610b2c57610b2b610389565b5b81517f30644e72e131a029b85045b68181585d2833e84879b9709143e1f593f000000181066060850152505050505050565b600060405160608101516101a082015186610b7b81888486610bf9565b6000805b88811015610bec577f30644e72e131a029b85045b68181585d2833e84879b9709143e1f593f0000001883584510991507f30644e72e131a029b85045b68181585d2833e84879b9709143e1f593f00000018288089650602083019250602088019750600181019050610b7f565b5050505050509392505050565b7f30644e72e131a029b85045b68181585d2833e84879b9709143e1f593f00000017f30644e427ce32d4886b01bfe313ba1dba6db8b2045d128178a7164500e0a6c11830960018560005b86811015610cea577f30644e72e131a029b85045b68181585d2833e84879b9709143e1f593f0000001837f30644e72e131a029b85045b68181585d2833e84879b9709143e1f593f000000103860882527f30644e72e131a029b85045b68181585d2833e84879b9709143e1f593f00000017f0c9fabc7845d50d2852e2a0371c6441f145e0db82e8326961c25f1e3e32b045b84099250602082019150600181019050610c43565b50610cf6818789610db3565b8690506001915060005b86811015610da9577f30644e72e131a029b85045b68181585d2833e84879b9709143e1f593f0000001837f30644e72e131a029b85045b68181585d2833e84879b9709143e1f593f0000001868551090982526020820191507f30644e72e131a029b85045b68181585d2833e84879b9709143e1f593f00000017f0c9fabc7845d50d2852e2a0371c6441f145e0db82e8326961c25f1e3e32b045b84099250600181019050610d00565b5050505050505050565b600183526000805b83811015610e095781850151828401517f30644e72e131a029b85045b68181585d2833e84879b9709143e1f593f0000001818309905060208401935080848801525050600181019050610dbb565b5060208103820191508084019350610e496020850160027f30644e72e131a029b85045b68181585d2833e84879b9709143e1f593f000000103865161294e565b60005b84811015610ebd5760208603955083517f30644e72e131a029b85045b68181585d2833e84879b9709143e1f593f0000001875184098086527f30644e72e131a029b85045b68181585d2833e84879b9709143e1f593f000000182850993506020860395505050600181019050610e4c565b505050505050565b600060405160608101516101a08201516103608501600080610eed8a6020850135853561107e565b9150610f008a628707288b018688610f3e565b90507f30644e72e131a029b85045b68181585d2833e84879b9709143e1f593f000000180828409880896506040830192505050505050509392505050565b6000610f6b85857f0c9fabc7845d50d2852e2a0371c6441f145e0db82e8326961c25f1e3e32b045b61294e565b7f30644e72e131a029b85045b68181585d2833e84879b9709143e1f593f0000001817f30644e72e131a029b85045b68181585d2833e84879b9709143e1f593f000000103840894507f30644e72e131a029b85045b68181585d2833e84879b9709143e1f593f00000017f30644e427ce32d4886b01bfe313ba1dba6db8b2045d128178a7164500e0a6c11820990506110278660027f30644e72e131a029b85045b68181585d2833e84879b9709143e1f593f0000001038761294e565b94507f30644e72e131a029b85045b68181585d2833e84879b9709143e1f593f000000185820990507f30644e72e131a029b85045b68181585d2833e84879b9709143e1f593f0000001848209915050949350505050565b6000808452600060208501528160408501528260608501526000608085015360306081850153600060828501536042608385015360536084850153604260858501536032608685015360326087850153602d608885015360506089850153606c608a850153606f608b850153606e608c850153606b608d850153600b608e850153602084608f8660025afa8061111757611116610389565b5b8451600160208701536042602187015360536022870153604260238701536032602487015360326025870153602d602687015360506027870153606c6028870153606f6029870153606e602a870153606b602b870153600b602c870153602086602d8860025afa91508161118e5761118d610389565b5b808651186020870152600260408701536042604187015360536042870153604260438701536032604487015360326045870153602d604687015360506047870153606c6048870153606f6049870153606e604a870153606b604b870153600b604c87015360208601602081602d8360025afa9250826112105761120f610389565b5b7f30644e72e131a029b85045b68181585d2833e84879b9709143e1f593f00000017001000000000000000000000000000000008851099350602087015160801c7f30644e72e131a029b85045b68181585d2833e84879b9709143e1f593f00000018186089450505050509392505050565b604051610220604051016101a08201517f30644e72e131a029b85045b68181585d2833e84879b9709143e1f593f000000160017f30644e72e131a029b85045b68181585d2833e84879b9709143e1f593f00000010360608501510861130a8360027f30644e72e131a029b85045b68181585d2833e84879b9709143e1f593f0000001038361294e565b90507f30644e72e131a029b85045b68181585d2833e84879b9709143e1f593f00000017f30644e427ce32d4886b01bfe313ba1dba6db8b2045d128178a7164500e0a6c11820990507f30644e72e131a029b85045b68181585d2833e84879b9709143e1f593f0000001828209915060008401517f30644e72e131a029b85045b68181585d2833e84879b9709143e1f593f000000181840992507f30644e72e131a029b85045b68181585d2833e84879b9709143e1f593f000000181840992508260808601525050505050565b6040516102208101610140820151815261016082015160208201526102c083013560408201526102e08301356060820152610220830135608082015261024083013560a082015261030083013560c082015261032083013560e082015260608201516101008201526101c08201516101208201526020816101408360025afa80611463576114626103e8565b5b7f30644e72e131a029b85045b68181585d2833e84879b9709143e1f593f00000018251069050816040810192506102c085013581526102e085013560208201526114b383836103008801846128a6565b61014084016114c884846102208901846128a6565b61012085016114dc846102608901836128fc565b846040810195507f1fa4be93b5e7f7e674d5059b63554fab99638b304ed8310e9fa44c281ac9b03b81527f1a01ae7fac6228e39d3cb5a5e71fd31160f3241e79a5f48ffb3737e6c389b72160208201528151604082015260408160608360075afa8061154b5761154a610389565b5b6020820180517f30644e72e131a029b85045b68181585d97816a916871ca8d3c208c16d87cfd470381526115818884878861275e565b8760408901985061159c8960608c01516102c08e0184612819565b7f30644e72e131a029b85045b68181585d2833e84879b9709143e1f593f00000017f0c9fabc7845d50d2852e2a0371c6441f145e0db82e8326961c25f1e3e32b045b60608c0151097f30644e72e131a029b85045b68181585d2833e84879b9709143e1f593f0000001818a09985061161a8a8a6103008f01856128a6565b6116268a83898a61275e565b6020880180517f30644e72e131a029b85045b68181585d97816a916871ca8d3c208c16d87cfd4703815287518b52602088015160208c01527f198e9393920d483a7260bfb731fb5d25f1aa493335a9e71297e485b7aef312c260408c01527f1800deef121f1e76426a00665e5c4479674322d4f75edadd46debd5cd992f6ed60608c01527f090689d0585ff075ec9e99ad690c3395bc4b313370b38ef355acdadcd122975b60808c01527f12c85ea5db8c6deb4aab71808dcb408fe3d1e7690c43d37b4ce6cc0166fa7daa60a08c0152885160c08c0152602089015160e08c01527f22f1acbb03c4508760c2430af35865e7cdf9f3eb1224504fdcc3708ddb954a486101008c01527f2a344fad01c2ed0ed73142ae1752429eaea515c6f3f6b941103cc21c2308e1cb6101208c01527f159f15b842ba9c8449aa3268f981010d4c7142e5193473d80b464e964845c3f86101408c01527f0efd30ac7b6f8d0d3ccbc2207587c2acbad1532dc0293f0d034cf8258cd428b36101608c01526117ac8b6117bb565b50505050505050505050505050565b604051602060006101808460085afa6000516101e083015180838316169150816101e08501525050505050565b6040516102206040510160208101604082016101c084015180610140860160a087015161014088015260c0870151610160880152610280880135610120880152611837868360e08a0184612850565b61184a826102a08a016101208a016128fc565b7f30644e72e131a029b85045b68181585d2833e84879b9709143e1f593f00000018383099150611883868360008b016101408b016128a6565b611896826101808a016101208a016128fc565b7f30644e72e131a029b85045b68181585d2833e84879b9709143e1f593f000000183830991506118cb868360408b01846128a6565b6118de826101a08a016101208a016128fc565b7f30644e72e131a029b85045b68181585d2833e84879b9709143e1f593f00000018383099150611913868360808b01846128a6565b611926826101c08a016101208a016128fc565b7f30644e72e131a029b85045b68181585d2833e84879b9709143e1f593f000000183830991507f131775ddcda187b52cc0b6f9c4a91bbeeb2a7fff859925accb034a207fabdc1286527f1268873594cdb041e410ced0cd5f51b49018f5b5b6ba6af6b6d8aaac7c9747e1855261199e84838884612850565b6119b1826101e08a016101208a016128fc565b7f30644e72e131a029b85045b68181585d2833e84879b9709143e1f593f000000183830991507f08c51e226263b3d4befcd86c5a2e2a64eabf06c2fbd24300634815621fcac2c886527f263aa1c4744731be256888ff42041734626688626db7af479cf3bf3e804cec998552611a2984838884612850565b611a3c826102008a016101208a016128fc565b61034088017f30644e72e131a029b85045b68181585d2833e84879b9709143e1f593f000000184840992507f2792035b60834ba2677cafe8fa4b80591ea35c985746d338367f98549d0d488b87527f1bc5376cc9d1d402411cfe8bb700a2b7ea407535365cc6a813b17c403fd94c988652611ab985848985612850565b611ac883826101208b016128fc565b602081019050505050505050505050565b604051610220604051016467616d6d6181526060820151602082015260a0820151604082015260c0820151606082015260e0820151608082015261010082015160a082015260c06000840160c08301377f131775ddcda187b52cc0b6f9c4a91bbeeb2a7fff859925accb034a207fabdc126101808201527f1268873594cdb041e410ced0cd5f51b49018f5b5b6ba6af6b6d8aaac7c9747e16101a08201527f08c51e226263b3d4befcd86c5a2e2a64eabf06c2fbd24300634815621fcac2c86101c08201527f263aa1c4744731be256888ff42041734626688626db7af479cf3bf3e804cec996101e08201526102007f2792035b60834ba2677cafe8fa4b80591ea35c985746d338367f98549d0d488b818301527f1bc5376cc9d1d402411cfe8bb700a2b7ea407535365cc6a813b17c403fd94c9860208201830152604081019050610280840135818301526102a084013560208201830152610180840135604082018301526101a0840135606082018301526101c0840135608082018301526101e084013560a0820183015261020084013560c0820183015260e081018201610340850160005b6001811015611ca55781358352602082019150602083019250600181019050611c81565b506102608601358252601b600360010260170160208102600501905060206101c088018284890160025afa80611cde57611cdd610389565b5b7f30644e72e131a029b85045b68181585d2833e84879b9709143e1f593f00000016101c0890151066101c0890152505050505050505050565b604051610220604051017eb68517928e8d088968da939031cc56afb106b14a0d8c9a00e95558d599226b81527f0d3d66dce587ee462b94ef15e4bd4733530808817ecac5dbcbe647660359266c6020820152611d80604082016101808501358360e086016127e2565b7f05b161407a009dc1100f00a35e84ebdbcb645db6265e87f9aa9366d8eeb51ad081527f1af1ee3fb4f957e217f1f908671559f98c7c2cc949ffac98a356876ace2c8d976020820152611de0604082016101a08501358360e08601612850565b7f30644e72e131a029b85045b68181585d2833e84879b9709143e1f593f00000016101a0840135610180850135097f10a542641b3711307f371c3aedafc127045d5c71bdd208905bd3aab5ee737db382527f09c0cb1104e1ad7234151a7620d16104832ef78c6057a15da7b4ae43daf0d2176020830152611e6960408301828460e08701612850565b7f24fa29d61c341a39dbbfeca49aebec47aa19904e0f17e0c6368310eca1593eea82527f14304c61499c73ecaa370dee1ee0960d1d7fc0cec3dbd69815b978d94e8fbd8d6020830152611ec9604083016101c08601358460e08701612850565b7f01600d40251062ba0241c75e3f3d8e4dc380dacbad9a2a6099b396f57c0a005382527f17f77c8a5ae67f238d819e8f0c7ff094f265b92bf5e5c33bd95bdd97a679e0ad6020830152611f27604083018360e0860160e0870161275e565b6103408401610360850160005b6001811015611f75578135855260208201356020860152611f5e6040860184358760e08a01612850565b602083019250604082019150600181019050611f34565b507f25c0c05f4b72b925d77f400e4cce59e0145c99c34bc3136aeeedc87b049dd34884527f1b8ac7f02a5384133c46e44c552c6aee0feea68602e4d358c1c7eb8e9b31bb5d6020850152611fd160408501888660e08901612850565b61022086013584526102408601356020850152611ff660408501898660e08901612850565b5050505050505050565b60405160208101516040820151606083015160008401517f30644e72e131a029b85045b68181585d2833e84879b9709143e1f593f000000184610260880135097f30644e72e131a029b85045b68181585d2833e84879b9709143e1f593f00000016101e088013586097f30644e72e131a029b85045b68181585d2833e84879b9709143e1f593f0000001610180890135820890507f30644e72e131a029b85045b68181585d2833e84879b9709143e1f593f000000185820890507f30644e72e131a029b85045b68181585d2833e84879b9709143e1f593f000000161020089013587097f30644e72e131a029b85045b68181585d2833e84879b9709143e1f593f00000016101a08a0135820890507f30644e72e131a029b85045b68181585d2833e84879b9709143e1f593f000000186820890507f30644e72e131a029b85045b68181585d2833e84879b9709143e1f593f00000018284097f30644e72e131a029b85045b68181585d2833e84879b9709143e1f593f000000182820990507f30644e72e131a029b85045b68181585d2833e84879b9709143e1f593f000000185820990507f30644e72e131a029b85045b68181585d2833e84879b9709143e1f593f0000001600580097f30644e72e131a029b85045b68181585d2833e84879b9709143e1f593f0000001878a097f30644e72e131a029b85045b68181585d2833e84879b9709143e1f593f00000016101808d0135820895507f30644e72e131a029b85045b68181585d2833e84879b9709143e1f593f000000189870895507f30644e72e131a029b85045b68181585d2833e84879b9709143e1f593f00000016005820994507f30644e72e131a029b85045b68181585d2833e84879b9709143e1f593f00000016101a08d0135860894507f30644e72e131a029b85045b68181585d2833e84879b9709143e1f593f000000189860894507f30644e72e131a029b85045b68181585d2833e84879b9709143e1f593f000000182820993507f30644e72e131a029b85045b68181585d2833e84879b9709143e1f593f00000016101c08d0135850893507f30644e72e131a029b85045b68181585d2833e84879b9709143e1f593f000000189850893507f30644e72e131a029b85045b68181585d2833e84879b9709143e1f593f00000018587097f30644e72e131a029b85045b68181585d2833e84879b9709143e1f593f00000018582099050807f30644e72e131a029b85045b68181585d2833e84879b9709143e1f593f00000010390507f30644e72e131a029b85045b68181585d2833e84879b9709143e1f593f000000188820990507f30644e72e131a029b85045b68181585d2833e84879b9709143e1f593f000000160808d0151820890506123f781858f611d17565b50505050505050505050505050565b6040516002630100000001610220604051016124278183606086015161294e565b61243a8282610140880160a08801612819565b61245082610100870160a0870160a088016127a0565b612462828260a0870160a088016127e2565b6124778260c0870160a0870160a088016127a0565b5050505050565b604051610220604051017f30644e72e131a029b85045b68181585d2833e84879b9709143e1f593f000000160208301516101e08501350981527f30644e72e131a029b85045b68181585d2833e84879b9709143e1f593f0000001604083015182510881527f30644e72e131a029b85045b68181585d2833e84879b9709143e1f593f00000016101808401358251088152602081017f30644e72e131a029b85045b68181585d2833e84879b9709143e1f593f000000160208401516102008601350981527f30644e72e131a029b85045b68181585d2833e84879b9709143e1f593f0000001604084015182510881527f30644e72e131a029b85045b68181585d2833e84879b9709143e1f593f00000016101a08501358251088152604082017f30644e72e131a029b85045b68181585d2833e84879b9709143e1f593f000000160408501516101c08701350881527f30644e72e131a029b85045b68181585d2833e84879b9709143e1f593f0000001825184510983527f30644e72e131a029b85045b68181585d2833e84879b9709143e1f593f0000001815184510983527f30644e72e131a029b85045b68181585d2833e84879b9709143e1f593f0000001600085015184510983527f30644e72e131a029b85045b68181585d2833e84879b9709143e1f593f00000016102608601358451098352606083017f30644e72e131a029b85045b68181585d2833e84879b9709143e1f593f00000016101808601516102a08801350881527f30644e72e131a029b85045b68181585d2833e84879b9709143e1f593f0000001845182510881527f30644e72e131a029b85045b68181585d2833e84879b9709143e1f593f000000160808601517f30644e72e131a029b85045b68181585d2833e84879b9709143e1f593f00000010382510881527f30644e72e131a029b85045b68181585d2833e84879b9709143e1f593f00000016101a086015161028088013509835282518151146101e0860152505050505050565b6040518251855260208301516020860152835160408601526020840151606086015260408260808760065afa806127985761279761020d565b5b505050505050565b6040518251855260208301516020860152833560408601526020840135606086015260408260808760065afa806127da576127d961020d565b5b505050505050565b604051825185526020830151602086015283604086015260408260608760075afa806128115761281061020d565b5b505050505050565b604051823585526020830135602086015283604086015260408260608760075afa806128485761284761020d565b5b505050505050565b604051825185526020830151602086015283604086015260408560608760075afa825160408701526020830151606087015260408360808860065afa811690508061289e5761289d61020d565b5b505050505050565b604051823585526020830135602086015283604086015260408560608760075afa825160408701526020830151606087015260408360808860065afa81169050806128f4576128f361020d565b5b505050505050565b7f30644e72e131a029b85045b68181585d2833e84879b9709143e1f593f0000001838335097f30644e72e131a029b85045b68181585d2833e84879b9709143e1f593f000000181835108825250505050565b600060208452602080850152602060408501528160608501528260808501527f30644e72e131a029b85045b68181585d2833e84879b9709143e1f593f000000160a085015260208460c08660055afa600081036129ae576129ad610389565b5b84519150509392505050565b50505050505050949350505050565b600080fd5b600080fd5b600080fd5b600080fd5b600080fd5b60008083601f8401126129f8576129f76129d3565b5b8235905067ffffffffffffffff811115612a1557612a146129d8565b5b602083019150836001820283011115612a3157612a306129dd565b5b9250929050565b60008083601f840112612a4e57612a4d6129d3565b5b8235905067ffffffffffffffff811115612a6b57612a6a6129d8565b5b602083019150836020820283011115612a8757612a866129dd565b5b9250929050565b60008060008060408587031215612aa857612aa76129c9565b5b600085013567ffffffffffffffff811115612ac657612ac56129ce565b5b612ad2878288016129e2565b9450945050602085013567ffffffffffffffff811115612af557612af46129ce565b5b612b0187828801612a38565b925092505092959194509250565b60008115159050919050565b612b2481612b0f565b82525050565b6000602082019050612b3f6000830184612b1b565b9291505056fea2646970667358221220b2851bafed663312ac8f20b20878bfcd682008a52c4d12194cb9d4231d9a08b364736f6c63430008130033",
  "linkReferences": {},
  "deployedLinkReferences": {}
}